{
    "contractName": "CryptoMonkeyChars",
    "abi": [
        {
            "inputs": [
                {
                    "internalType": "address",
                    "name": "_tokenAddress",
                    "type": "address"
                },
                {
                    "internalType": "uint256",
                    "name": "_mintCostBasic",
                    "type": "uint256"
                },
                {
                    "internalType": "uint256",
                    "name": "_mintCostRare",
                    "type": "uint256"
                },
                {
                    "internalType": "uint256",
                    "name": "_mintCostLegendary",
                    "type": "uint256"
                },
                {
                    "internalType": "uint256",
                    "name": "_levelUpCost",
                    "type": "uint256"
                },
                {
                    "internalType": "string",
                    "name": "_baseUriString",
                    "type": "string"
                }
            ],
            "stateMutability": "nonpayable",
            "type": "constructor"
        },
        {
            "anonymous": false,
            "inputs": [
                {
                    "indexed": true,
                    "internalType": "address",
                    "name": "owner",
                    "type": "address"
                },
                {
                    "indexed": true,
                    "internalType": "address",
                    "name": "approved",
                    "type": "address"
                },
                {
                    "indexed": true,
                    "internalType": "uint256",
                    "name": "tokenId",
                    "type": "uint256"
                }
            ],
            "name": "Approval",
            "type": "event"
        },
        {
            "anonymous": false,
            "inputs": [
                {
                    "indexed": true,
                    "internalType": "address",
                    "name": "owner",
                    "type": "address"
                },
                {
                    "indexed": true,
                    "internalType": "address",
                    "name": "operator",
                    "type": "address"
                },
                {
                    "indexed": false,
                    "internalType": "bool",
                    "name": "approved",
                    "type": "bool"
                }
            ],
            "name": "ApprovalForAll",
            "type": "event"
        },
        {
            "anonymous": false,
            "inputs": [
                {
                    "indexed": true,
                    "internalType": "address",
                    "name": "previousOwner",
                    "type": "address"
                },
                {
                    "indexed": true,
                    "internalType": "address",
                    "name": "newOwner",
                    "type": "address"
                }
            ],
            "name": "OwnershipTransferred",
            "type": "event"
        },
        {
            "anonymous": false,
            "inputs": [
                {
                    "indexed": true,
                    "internalType": "address",
                    "name": "from",
                    "type": "address"
                },
                {
                    "indexed": true,
                    "internalType": "address",
                    "name": "to",
                    "type": "address"
                },
                {
                    "indexed": true,
                    "internalType": "uint256",
                    "name": "tokenId",
                    "type": "uint256"
                }
            ],
            "name": "Transfer",
            "type": "event"
        },
        {
            "inputs": [],
            "name": "_tokenIds",
            "outputs": [
                {
                    "internalType": "uint256",
                    "name": "_value",
                    "type": "uint256"
                }
            ],
            "stateMutability": "view",
            "type": "function"
        },
        {
            "inputs": [
                {
                    "internalType": "address",
                    "name": "to",
                    "type": "address"
                },
                {
                    "internalType": "uint256",
                    "name": "tokenId",
                    "type": "uint256"
                }
            ],
            "name": "approve",
            "outputs": [],
            "stateMutability": "nonpayable",
            "type": "function"
        },
        {
            "inputs": [
                {
                    "internalType": "address",
                    "name": "owner",
                    "type": "address"
                }
            ],
            "name": "balanceOf",
            "outputs": [
                {
                    "internalType": "uint256",
                    "name": "",
                    "type": "uint256"
                }
            ],
            "stateMutability": "view",
            "type": "function"
        },
        {
            "inputs": [],
            "name": "baseUriString",
            "outputs": [
                {
                    "internalType": "string",
                    "name": "",
                    "type": "string"
                }
            ],
            "stateMutability": "view",
            "type": "function"
        },
        {
            "inputs": [
                {
                    "internalType": "uint256",
                    "name": "tokenId",
                    "type": "uint256"
                }
            ],
            "name": "getApproved",
            "outputs": [
                {
                    "internalType": "address",
                    "name": "",
                    "type": "address"
                }
            ],
            "stateMutability": "view",
            "type": "function"
        },
        {
            "inputs": [
                {
                    "internalType": "uint256",
                    "name": "nftIndex",
                    "type": "uint256"
                }
            ],
            "name": "getNftData",
            "outputs": [
                {
                    "internalType": "uint8",
                    "name": "",
                    "type": "uint8"
                },
                {
                    "internalType": "uint8",
                    "name": "",
                    "type": "uint8"
                },
                {
                    "internalType": "uint256",
                    "name": "",
                    "type": "uint256"
                },
                {
                    "internalType": "bool",
                    "name": "",
                    "type": "bool"
                },
                {
                    "internalType": "uint16",
                    "name": "",
                    "type": "uint16"
                }
            ],
            "stateMutability": "view",
            "type": "function"
        },
        {
            "inputs": [
                {
                    "internalType": "address",
                    "name": "owner",
                    "type": "address"
                },
                {
                    "internalType": "address",
                    "name": "operator",
                    "type": "address"
                }
            ],
            "name": "isApprovedForAll",
            "outputs": [
                {
                    "internalType": "bool",
                    "name": "",
                    "type": "bool"
                }
            ],
            "stateMutability": "view",
            "type": "function"
        },
        {
            "inputs": [],
            "name": "levelUpCost",
            "outputs": [
                {
                    "internalType": "uint256",
                    "name": "",
                    "type": "uint256"
                }
            ],
            "stateMutability": "view",
            "type": "function"
        },
        {
            "inputs": [
                {
                    "internalType": "uint16",
                    "name": "",
                    "type": "uint16"
                }
            ],
            "name": "mintCost",
            "outputs": [
                {
                    "internalType": "uint256",
                    "name": "",
                    "type": "uint256"
                }
            ],
            "stateMutability": "view",
            "type": "function"
        },
        {
            "inputs": [
                {
                    "internalType": "address",
                    "name": "recipient",
                    "type": "address"
                },
                {
                    "internalType": "uint16",
                    "name": "_probabilityMapping",
                    "type": "uint16"
                }
            ],
            "name": "mintNft",
            "outputs": [],
            "stateMutability": "nonpayable",
            "type": "function"
        },
        {
            "inputs": [],
            "name": "name",
            "outputs": [
                {
                    "internalType": "string",
                    "name": "",
                    "type": "string"
                }
            ],
            "stateMutability": "view",
            "type": "function"
        },
        {
            "inputs": [
                {
                    "internalType": "uint256",
                    "name": "nftIndex",
                    "type": "uint256"
                }
            ],
            "name": "openNftBox",
            "outputs": [],
            "stateMutability": "nonpayable",
            "type": "function"
        },
        {
            "inputs": [],
            "name": "owner",
            "outputs": [
                {
                    "internalType": "address",
                    "name": "",
                    "type": "address"
                }
            ],
            "stateMutability": "view",
            "type": "function"
        },
        {
            "inputs": [
                {
                    "internalType": "uint256",
                    "name": "tokenId",
                    "type": "uint256"
                }
            ],
            "name": "ownerOf",
            "outputs": [
                {
                    "internalType": "address",
                    "name": "",
                    "type": "address"
                }
            ],
            "stateMutability": "view",
            "type": "function"
        },
        {
            "inputs": [],
            "name": "renounceOwnership",
            "outputs": [],
            "stateMutability": "nonpayable",
            "type": "function"
        },
        {
            "inputs": [
                {
                    "internalType": "address",
                    "name": "from",
                    "type": "address"
                },
                {
                    "internalType": "address",
                    "name": "to",
                    "type": "address"
                },
                {
                    "internalType": "uint256",
                    "name": "tokenId",
                    "type": "uint256"
                }
            ],
            "name": "safeTransferFrom",
            "outputs": [],
            "stateMutability": "nonpayable",
            "type": "function"
        },
        {
            "inputs": [
                {
                    "internalType": "address",
                    "name": "from",
                    "type": "address"
                },
                {
                    "internalType": "address",
                    "name": "to",
                    "type": "address"
                },
                {
                    "internalType": "uint256",
                    "name": "tokenId",
                    "type": "uint256"
                },
                {
                    "internalType": "bytes",
                    "name": "_data",
                    "type": "bytes"
                }
            ],
            "name": "safeTransferFrom",
            "outputs": [],
            "stateMutability": "nonpayable",
            "type": "function"
        },
        {
            "inputs": [
                {
                    "internalType": "address",
                    "name": "operator",
                    "type": "address"
                },
                {
                    "internalType": "bool",
                    "name": "approved",
                    "type": "bool"
                }
            ],
            "name": "setApprovalForAll",
            "outputs": [],
            "stateMutability": "nonpayable",
            "type": "function"
        },
        {
            "inputs": [
                {
                    "internalType": "string",
                    "name": "_baseUriString",
                    "type": "string"
                }
            ],
            "name": "setBaseUriString",
            "outputs": [],
            "stateMutability": "nonpayable",
            "type": "function"
        },
        {
            "inputs": [
                {
                    "internalType": "uint256",
                    "name": "_cost",
                    "type": "uint256"
                }
            ],
            "name": "setLevelUpCost",
            "outputs": [],
            "stateMutability": "nonpayable",
            "type": "function"
        },
        {
            "inputs": [
                {
                    "internalType": "uint256",
                    "name": "_cost1",
                    "type": "uint256"
                },
                {
                    "internalType": "uint256",
                    "name": "_cost2",
                    "type": "uint256"
                },
                {
                    "internalType": "uint256",
                    "name": "_cost3",
                    "type": "uint256"
                }
            ],
            "name": "setMintCost",
            "outputs": [],
            "stateMutability": "nonpayable",
            "type": "function"
        },
        {
            "inputs": [
                {
                    "internalType": "address",
                    "name": "_address",
                    "type": "address"
                }
            ],
            "name": "setTokenAddress",
            "outputs": [],
            "stateMutability": "nonpayable",
            "type": "function"
        },
        {
            "inputs": [
                {
                    "internalType": "bytes4",
                    "name": "interfaceId",
                    "type": "bytes4"
                }
            ],
            "name": "supportsInterface",
            "outputs": [
                {
                    "internalType": "bool",
                    "name": "",
                    "type": "bool"
                }
            ],
            "stateMutability": "view",
            "type": "function"
        },
        {
            "inputs": [],
            "name": "symbol",
            "outputs": [
                {
                    "internalType": "string",
                    "name": "",
                    "type": "string"
                }
            ],
            "stateMutability": "view",
            "type": "function"
        },
        {
            "inputs": [],
            "name": "tokenAddress",
            "outputs": [
                {
                    "internalType": "address",
                    "name": "",
                    "type": "address"
                }
            ],
            "stateMutability": "view",
            "type": "function"
        },
        {
            "inputs": [
                {
                    "internalType": "uint256",
                    "name": "index",
                    "type": "uint256"
                }
            ],
            "name": "tokenByIndex",
            "outputs": [
                {
                    "internalType": "uint256",
                    "name": "",
                    "type": "uint256"
                }
            ],
            "stateMutability": "view",
            "type": "function"
        },
        {
            "inputs": [
                {
                    "internalType": "address",
                    "name": "owner",
                    "type": "address"
                },
                {
                    "internalType": "uint256",
                    "name": "index",
                    "type": "uint256"
                }
            ],
            "name": "tokenOfOwnerByIndex",
            "outputs": [
                {
                    "internalType": "uint256",
                    "name": "",
                    "type": "uint256"
                }
            ],
            "stateMutability": "view",
            "type": "function"
        },
        {
            "inputs": [
                {
                    "internalType": "uint256",
                    "name": "tokenId",
                    "type": "uint256"
                }
            ],
            "name": "tokenURI",
            "outputs": [
                {
                    "internalType": "string",
                    "name": "",
                    "type": "string"
                }
            ],
            "stateMutability": "view",
            "type": "function"
        },
        {
            "inputs": [
                {
                    "internalType": "uint256",
                    "name": "",
                    "type": "uint256"
                }
            ],
            "name": "tokensAttributes",
            "outputs": [
                {
                    "internalType": "uint8",
                    "name": "monkeyType",
                    "type": "uint8"
                },
                {
                    "internalType": "uint8",
                    "name": "charLevel",
                    "type": "uint8"
                },
                {
                    "internalType": "uint256",
                    "name": "mintTime",
                    "type": "uint256"
                },
                {
                    "internalType": "bool",
                    "name": "openedBox",
                    "type": "bool"
                },
                {
                    "internalType": "uint16",
                    "name": "boxType",
                    "type": "uint16"
                }
            ],
            "stateMutability": "view",
            "type": "function"
        },
        {
            "inputs": [],
            "name": "totalSupply",
            "outputs": [
                {
                    "internalType": "uint256",
                    "name": "",
                    "type": "uint256"
                }
            ],
            "stateMutability": "view",
            "type": "function"
        },
        {
            "inputs": [
                {
                    "internalType": "address",
                    "name": "from",
                    "type": "address"
                },
                {
                    "internalType": "address",
                    "name": "to",
                    "type": "address"
                },
                {
                    "internalType": "uint256",
                    "name": "tokenId",
                    "type": "uint256"
                }
            ],
            "name": "transferFrom",
            "outputs": [],
            "stateMutability": "nonpayable",
            "type": "function"
        },
        {
            "inputs": [
                {
                    "internalType": "address",
                    "name": "newOwner",
                    "type": "address"
                }
            ],
            "name": "transferOwnership",
            "outputs": [],
            "stateMutability": "nonpayable",
            "type": "function"
        },
        {
            "inputs": [
                {
                    "internalType": "address",
                    "name": "recipient",
                    "type": "address"
                },
                {
                    "internalType": "uint256",
                    "name": "nftIndex",
                    "type": "uint256"
                }
            ],
            "name": "upgradeNft",
            "outputs": [],
            "stateMutability": "nonpayable",
            "type": "function"
        }
    ],
    "bytecode": "60806040523480156200001157600080fd5b5060405162002c5838038062002c58833981016040819052620000349162000287565b604080518082018252600d81526c43727970746f4d6f6e6b65797360981b602080830191825283518085019094526008845267434d4f4e4b45595360c01b9084015281519192916200008991600091620001cb565b5080516200009f906001906020840190620001cb565b505050620000bc620000b66200017560201b60201c565b62000179565b600e80546001600160a01b0319166001600160a01b038816179055600f60209081527f169f97de0d9a84d840042b17d3c6b9638b3d6fd9024c9eb0c7a306a17b49f88f8690557fa74ba3945261e09fde15ba3db55005b205e61eeb4ad811ac0faa2b315bffeead85905560036000527f45f76dafbbad695564362934e24d72eedc57f9fc1a65f39bca62176cc829682884905560108390558151620001689160119190840190620001cb565b50505050505050620003eb565b3390565b600b80546001600160a01b038381166001600160a01b0319831681179093556040519116919082907f8be0079c531659141344cd1fd0a4f28419497f9722a3daafe3b4186f6b6457e090600090a35050565b828054620001d990620003ae565b90600052602060002090601f016020900481019282620001fd576000855562000248565b82601f106200021857805160ff191683800117855562000248565b8280016001018555821562000248579182015b82811115620002485782518255916020019190600101906200022b565b50620002569291506200025a565b5090565b5b808211156200025657600081556001016200025b565b634e487b7160e01b600052604160045260246000fd5b60008060008060008060c08789031215620002a157600080fd5b86516001600160a01b0381168114620002b957600080fd5b60208881015160408a015160608b015160808c015160a08d0151959b5092995090975095509350906001600160401b0380821115620002f757600080fd5b818a0191508a601f8301126200030c57600080fd5b81518181111562000321576200032162000271565b604051601f8201601f19908116603f011681019083821181831017156200034c576200034c62000271565b816040528281528d868487010111156200036557600080fd5b600093505b828410156200038957848401860151818501870152928501926200036a565b828411156200039b5760008684830101525b8096505050505050509295509295509295565b600181811c90821680620003c357607f821691505b60208210811415620003e557634e487b7160e01b600052602260045260246000fd5b50919050565b61285d80620003fb6000396000f3fe608060405234801561001057600080fd5b50600436106101fb5760003560e01c8063715018a61161011a578063bf9d743a116100ad578063d8471d471161007c578063d8471d47146104b5578063e985e9c5146104d5578063e9cb499b14610511578063f2fde38b14610524578063fa1f97721461053757600080fd5b8063bf9d743a14610435578063c86dae0f1461047c578063c87b56dd1461048f578063d3c130de146104a257600080fd5b8063a22cb465116100e9578063a22cb46514610389578063a802d82b1461039c578063aa46a40014610418578063b88d4fde1461042257600080fd5b8063715018a6146103555780638da5cb5b1461035d57806395d89b411461036e5780639d76ea581461037657600080fd5b806323b872dd116101925780634f6ccce7116101615780634f6ccce71461031457806359cfb23d146103275780636352211e1461032f57806370a082311461034257600080fd5b806323b872dd146102c857806326a4e8d2146102db5780632f745c59146102ee57806342842e0e1461030157600080fd5b8063095ea7b3116101ce578063095ea7b31461027d5780631594d8cb1461029057806318160ddd146102a35780631f8c5630146102b557600080fd5b806301ffc9a71461020057806306fdde0314610228578063081812fc1461023d57806308ad92ae14610268575b600080fd5b61021361020e36600461219d565b610540565b60405190151581526020015b60405180910390f35b610230610551565b60405161021f9190612212565b61025061024b366004612225565b6105e3565b6040516001600160a01b03909116815260200161021f565b61027b610276366004612225565b610670565b005b61027b61028b36600461225a565b610730565b61027b61029e366004612310565b610846565b6008545b60405190815260200161021f565b61027b6102c336600461236b565b610887565b61027b6102d636600461239e565b6109e7565b61027b6102e93660046123da565b610a18565b6102a76102fc36600461225a565b610a64565b61027b61030f36600461239e565b610afa565b6102a7610322366004612225565b610b15565b610230610ba8565b61025061033d366004612225565b610c36565b6102a76103503660046123da565b610cad565b61027b610d34565b600b546001600160a01b0316610250565b610230610d6a565b600e54610250906001600160a01b031681565b61027b6103973660046123f5565b610d79565b6103e56103aa366004612225565b6000908152600d602052604090208054600182015460029092015460ff808316946101009384900482169493918316929190910461ffff1690565b6040805160ff9687168152959094166020860152928401919091521515606083015261ffff16608082015260a00161021f565b600c546102a79081565b61027b610430366004612431565b610d84565b6103e5610443366004612225565b600d6020526000908152604090208054600182015460029092015460ff80831693610100938490048216939092918216910461ffff1685565b61027b61048a366004612225565b610db6565b61023061049d366004612225565b610de5565b61027b6104b03660046124ad565b610df0565b6102a76104c33660046124d9565b600f6020526000908152604090205481565b6102136104e33660046124f4565b6001600160a01b03918216600090815260056020908152604080832093909416825291909152205460ff1690565b61027b61051f36600461225a565b610e8f565b61027b6105323660046123da565b611040565b6102a760105481565b600061054b826110db565b92915050565b6060600080546105609061251e565b80601f016020809104026020016040519081016040528092919081815260200182805461058c9061251e565b80156105d95780601f106105ae576101008083540402835291602001916105d9565b820191906000526020600020905b8154815290600101906020018083116105bc57829003601f168201915b5050505050905090565b60006105ee82611100565b6106545760405162461bcd60e51b815260206004820152602c60248201527f4552433732313a20617070726f76656420717565727920666f72206e6f6e657860448201526b34b9ba32b73a103a37b5b2b760a11b60648201526084015b60405180910390fd5b506000908152600460205260409020546001600160a01b031690565b3361067a82610c36565b6001600160a01b0316146106a05760405162461bcd60e51b815260040161064b90612559565b6000818152600d602052604090206002015460ff16156107125760405162461bcd60e51b815260206004820152602760248201527f43727970746f4d6f6e6b65797343686172733a20626f7820697320616c726561604482015266323c9037b832b760c91b606482015260840161064b565b6000908152600d60205260409020600201805460ff19166001179055565b600061073b82610c36565b9050806001600160a01b0316836001600160a01b031614156107a95760405162461bcd60e51b815260206004820152602160248201527f4552433732313a20617070726f76616c20746f2063757272656e74206f776e656044820152603960f91b606482015260840161064b565b336001600160a01b03821614806107c557506107c581336104e3565b6108375760405162461bcd60e51b815260206004820152603860248201527f4552433732313a20617070726f76652063616c6c6572206973206e6f74206f7760448201527f6e6572206e6f7220617070726f76656420666f7220616c6c0000000000000000606482015260840161064b565b610841838361111d565b505050565b600b546001600160a01b031633146108705760405162461bcd60e51b815260040161064b906125a0565b80516108839060119060208401906120ee565b5050565b8061ffff166001148061089e57508061ffff166002145b806108ad57508061ffff166003145b6109365760405162461bcd60e51b815260206004820152604e60248201527f43727970746f4d6f6e6b657943686172733a206d696e744e66743a205f70726f60448201527f626162696c6974794d617070696e67206d7573742062656c6f6e6720746f207560648201526d696e7431365b312c20322c20335d60901b608482015260a40161064b565b600e5461ffff82166000908152600f60205260409081902054905163079cc67960e41b815233600482015260248101919091526001600160a01b039091169081906379cc679090604401600060405180830381600087803b15801561099a57600080fd5b505af11580156109ae573d6000803e3d6000fd5b505050506109c0600c80546001019055565b60006109cb600c5490565b90506109d7848261118b565b6109e181846112ca565b50505050565b6109f133826113ba565b610a0d5760405162461bcd60e51b815260040161064b906125d5565b6108418383836114a4565b600b546001600160a01b03163314610a425760405162461bcd60e51b815260040161064b906125a0565b600e80546001600160a01b0319166001600160a01b0392909216919091179055565b6000610a6f83610cad565b8210610ad15760405162461bcd60e51b815260206004820152602b60248201527f455243373231456e756d657261626c653a206f776e657220696e646578206f7560448201526a74206f6620626f756e647360a81b606482015260840161064b565b506001600160a01b03919091166000908152600660209081526040808320938352929052205490565b61084183838360405180602001604052806000815250610d84565b6000610b2060085490565b8210610b835760405162461bcd60e51b815260206004820152602c60248201527f455243373231456e756d657261626c653a20676c6f62616c20696e646578206f60448201526b7574206f6620626f756e647360a01b606482015260840161064b565b60088281548110610b9657610b96612626565b90600052602060002001549050919050565b60118054610bb59061251e565b80601f0160208091040260200160405190810160405280929190818152602001828054610be19061251e565b8015610c2e5780601f10610c0357610100808354040283529160200191610c2e565b820191906000526020600020905b815481529060010190602001808311610c1157829003601f168201915b505050505081565b6000818152600260205260408120546001600160a01b03168061054b5760405162461bcd60e51b815260206004820152602960248201527f4552433732313a206f776e657220717565727920666f72206e6f6e657869737460448201526832b73a103a37b5b2b760b91b606482015260840161064b565b60006001600160a01b038216610d185760405162461bcd60e51b815260206004820152602a60248201527f4552433732313a2062616c616e636520717565727920666f7220746865207a65604482015269726f206164647265737360b01b606482015260840161064b565b506001600160a01b031660009081526003602052604090205490565b600b546001600160a01b03163314610d5e5760405162461bcd60e51b815260040161064b906125a0565b610d68600061164b565b565b6060600180546105609061251e565b61088333838361169d565b610d8e33836113ba565b610daa5760405162461bcd60e51b815260040161064b906125d5565b6109e18484848461176c565b600b546001600160a01b03163314610de05760405162461bcd60e51b815260040161064b906125a0565b601055565b606061054b8261179f565b600b546001600160a01b03163314610e1a5760405162461bcd60e51b815260040161064b906125a0565b600f6020527f169f97de0d9a84d840042b17d3c6b9638b3d6fd9024c9eb0c7a306a17b49f88f929092557fa74ba3945261e09fde15ba3db55005b205e61eeb4ad811ac0faa2b315bffeead5560036000527f45f76dafbbad695564362934e24d72eedc57f9fc1a65f39bca62176cc829682855565b816001600160a01b0316610ea282610c36565b6001600160a01b031614610f0b5760405162461bcd60e51b815260206004820152602a60248201527f43727970746f4d6f6e6b65797343686172733a206f776e6572206973206e6f74604482015269081c9958da5c1a595b9d60b21b606482015260840161064b565b33610f1582610c36565b6001600160a01b031614610f3b5760405162461bcd60e51b815260040161064b90612559565b6000818152600d602052604090205460ff61010090910416600114610fb65760405162461bcd60e51b815260206004820152602b60248201527f43727970746f4d6f6e6b65797343686172733a206368617220697320616c726560448201526a30b23c903632bb32b6101960a91b606482015260840161064b565b600e5460105460405163079cc67960e41b81526001600160a01b038581166004830152602482019290925291169081906379cc679090604401600060405180830381600087803b15801561100957600080fd5b505af115801561101d573d6000803e3d6000fd5b50505060009283525050600d60205260409020805461ff00191661020017905550565b600b546001600160a01b0316331461106a5760405162461bcd60e51b815260040161064b906125a0565b6001600160a01b0381166110cf5760405162461bcd60e51b815260206004820152602660248201527f4f776e61626c653a206e6577206f776e657220697320746865207a65726f206160448201526564647265737360d01b606482015260840161064b565b6110d88161164b565b50565b60006001600160e01b0319821663780e9d6360e01b148061054b575061054b82611901565b6000908152600260205260409020546001600160a01b0316151590565b600081815260046020526040902080546001600160a01b0319166001600160a01b038416908117909155819061115282610c36565b6001600160a01b03167f8c5be1e5ebec7d5bd14f71427d1e84f3dd0314c0f7b2291e5b200ac8c7c3b92560405160405180910390a45050565b6001600160a01b0382166111e15760405162461bcd60e51b815260206004820181905260248201527f4552433732313a206d696e7420746f20746865207a65726f2061646472657373604482015260640161064b565b6111ea81611100565b156112375760405162461bcd60e51b815260206004820152601c60248201527f4552433732313a20746f6b656e20616c7265616479206d696e74656400000000604482015260640161064b565b61124360008383611951565b6001600160a01b038216600090815260036020526040812080546001929061126c908490612652565b909155505060008181526002602052604080822080546001600160a01b0319166001600160a01b03861690811790915590518392907fddf252ad1be2c89b69c2b068fc378daa952ba7f163c4a11628f55a4df523b3ef908290a45050565b60006112ea60646112da8561195c565b6112e49190612680565b836119c1565b6040805160a08101825260ff838116808352600160208085018281524286880190815260006060880181815261ffff8d811660808b019081528f8452600d9096529990912097518854935190881661ffff19909416939093176101009390971683029690961787555192860192909255925160029094018054935162ffffff1990941694151562ffff001916949094179290941690930217905590915061084190849061139690611b45565b6040516020016113a69190612694565b604051602081830303815290604052611c43565b60006113c582611100565b6114265760405162461bcd60e51b815260206004820152602c60248201527f4552433732313a206f70657261746f7220717565727920666f72206e6f6e657860448201526b34b9ba32b73a103a37b5b2b760a11b606482015260840161064b565b600061143183610c36565b9050806001600160a01b0316846001600160a01b0316148061146c5750836001600160a01b0316611461846105e3565b6001600160a01b0316145b8061149c57506001600160a01b0380821660009081526005602090815260408083209388168352929052205460ff165b949350505050565b826001600160a01b03166114b782610c36565b6001600160a01b03161461151b5760405162461bcd60e51b815260206004820152602560248201527f4552433732313a207472616e736665722066726f6d20696e636f72726563742060448201526437bbb732b960d91b606482015260840161064b565b6001600160a01b03821661157d5760405162461bcd60e51b8152602060048201526024808201527f4552433732313a207472616e7366657220746f20746865207a65726f206164646044820152637265737360e01b606482015260840161064b565b611588838383611951565b61159360008261111d565b6001600160a01b03831660009081526003602052604081208054600192906115bc9084906126cb565b90915550506001600160a01b03821660009081526003602052604081208054600192906115ea908490612652565b909155505060008181526002602052604080822080546001600160a01b0319166001600160a01b0386811691821790925591518493918716917fddf252ad1be2c89b69c2b068fc378daa952ba7f163c4a11628f55a4df523b3ef91a4505050565b600b80546001600160a01b038381166001600160a01b0319831681179093556040519116919082907f8be0079c531659141344cd1fd0a4f28419497f9722a3daafe3b4186f6b6457e090600090a35050565b816001600160a01b0316836001600160a01b031614156116ff5760405162461bcd60e51b815260206004820152601960248201527f4552433732313a20617070726f766520746f2063616c6c657200000000000000604482015260640161064b565b6001600160a01b03838116600081815260056020908152604080832094871680845294825291829020805460ff191686151590811790915591519182527f17307eab39ab6107e8899845ad3d59bd9653f200f220920489ca2b5937696c31910160405180910390a3505050565b6117778484846114a4565b61178384848484611cce565b6109e15760405162461bcd60e51b815260040161064b906126e2565b60606117aa82611100565b6118105760405162461bcd60e51b815260206004820152603160248201527f45524337323155524953746f726167653a2055524920717565727920666f72206044820152703737b732bc34b9ba32b73a103a37b5b2b760791b606482015260840161064b565b6000828152600a6020526040812080546118299061251e565b80601f01602080910402602001604051908101604052809291908181526020018280546118559061251e565b80156118a25780601f10611877576101008083540402835291602001916118a2565b820191906000526020600020905b81548152906001019060200180831161188557829003601f168201915b5050505050905060006118b3611dcc565b90508051600014156118c6575092915050565b8151156118f85780826040516020016118e0929190612734565b60405160208183030381529060405292505050919050565b61149c84611ddb565b60006001600160e01b031982166380ac58cd60e01b148061193257506001600160e01b03198216635b5e139f60e01b145b8061054b57506301ffc9a760e01b6001600160e01b031983161461054b565b610841838383611ea6565b600044423361196a600c5490565b6040805160208101959095528401929092526bffffffffffffffffffffffff19606091821b169083015260748201526094810183905260b40160408051601f19818403018152919052805160209091012092915050565b60008060008060008561ffff16600114156119ea57506044925060169150600890506002611a27565b8561ffff1660021415611a0b5750601e92506028915060149050600a611a27565b8561ffff1660031415611a275750600092506028915081905060145b8360ff16871015611a5357611a3d600488612680565b611a48906001612652565b94505050505061054b565b611a5d8385612763565b60ff16871015611a7d57611a72600388612680565b611a48906005612652565b81611a888486612763565b611a929190612763565b60ff16871015611ab257611aa7600288612680565b611a48906008612652565b8082611abe8587612763565b611ac89190612763565b611ad29190612763565b60ff16871015611af257611ae7600288612680565b611a4890600a612652565b60405162461bcd60e51b815260206004820152602260248201527f4661696c75726520696e2072616e646f6d2073656c656374696f6e206d6574686044820152611bd960f21b606482015260840161064b565b606081611b695750506040805180820190915260018152600360fc1b602082015290565b8160005b8115611b935780611b7d81612788565b9150611b8c9050600a836127a3565b9150611b6d565b60008167ffffffffffffffff811115611bae57611bae612284565b6040519080825280601f01601f191660200182016040528015611bd8576020820181803683370190505b5090505b841561149c57611bed6001836126cb565b9150611bfa600a86612680565b611c05906030612652565b60f81b818381518110611c1a57611c1a612626565b60200101906001600160f81b031916908160001a905350611c3c600a866127a3565b9450611bdc565b611c4c82611100565b611caf5760405162461bcd60e51b815260206004820152602e60248201527f45524337323155524953746f726167653a2055524920736574206f66206e6f6e60448201526d32bc34b9ba32b73a103a37b5b2b760911b606482015260840161064b565b6000828152600a602090815260409091208251610841928401906120ee565b60006001600160a01b0384163b15611dc157604051630a85bd0160e11b81526001600160a01b0385169063150b7a0290611d129033908990889088906004016127b7565b6020604051808303816000875af1925050508015611d4d575060408051601f3d908101601f19168201909252611d4a918101906127f4565b60015b611da7573d808015611d7b576040519150601f19603f3d011682016040523d82523d6000602084013e611d80565b606091505b508051611d9f5760405162461bcd60e51b815260040161064b906126e2565b805181602001fd5b6001600160e01b031916630a85bd0160e11b14905061149c565b506001949350505050565b6060601180546105609061251e565b6060611de682611100565b611e4a5760405162461bcd60e51b815260206004820152602f60248201527f4552433732314d657461646174613a2055524920717565727920666f72206e6f60448201526e3732bc34b9ba32b73a103a37b5b2b760891b606482015260840161064b565b6000611e54611dcc565b90506000815111611e745760405180602001604052806000815250611e9f565b80611e7e84611b45565b604051602001611e8f929190612734565b6040516020818303038152906040525b9392505050565b6001600160a01b038316611f0157611efc81600880546000838152600960205260408120829055600182018355919091527ff3f7a9fe364faab93b216da50a3214154f22a0a2b415b23a84c8169e8b636ee30155565b611f24565b816001600160a01b0316836001600160a01b031614611f2457611f248382611f5e565b6001600160a01b038216611f3b5761084181611ffb565b826001600160a01b0316826001600160a01b0316146108415761084182826120aa565b60006001611f6b84610cad565b611f7591906126cb565b600083815260076020526040902054909150808214611fc8576001600160a01b03841660009081526006602090815260408083208584528252808320548484528184208190558352600790915290208190555b5060009182526007602090815260408084208490556001600160a01b039094168352600681528383209183525290812055565b60085460009061200d906001906126cb565b6000838152600960205260408120546008805493945090928490811061203557612035612626565b90600052602060002001549050806008838154811061205657612056612626565b600091825260208083209091019290925582815260099091526040808220849055858252812055600880548061208e5761208e612811565b6001900381819060005260206000200160009055905550505050565b60006120b583610cad565b6001600160a01b039093166000908152600660209081526040808320868452825280832085905593825260079052919091209190915550565b8280546120fa9061251e565b90600052602060002090601f01602090048101928261211c5760008555612162565b82601f1061213557805160ff1916838001178555612162565b82800160010185558215612162579182015b82811115612162578251825591602001919060010190612147565b5061216e929150612172565b5090565b5b8082111561216e5760008155600101612173565b6001600160e01b0319811681146110d857600080fd5b6000602082840312156121af57600080fd5b8135611e9f81612187565b60005b838110156121d55781810151838201526020016121bd565b838111156109e15750506000910152565b600081518084526121fe8160208601602086016121ba565b601f01601f19169290920160200192915050565b602081526000611e9f60208301846121e6565b60006020828403121561223757600080fd5b5035919050565b80356001600160a01b038116811461225557600080fd5b919050565b6000806040838503121561226d57600080fd5b6122768361223e565b946020939093013593505050565b634e487b7160e01b600052604160045260246000fd5b600067ffffffffffffffff808411156122b5576122b5612284565b604051601f8501601f19908116603f011681019082821181831017156122dd576122dd612284565b816040528093508581528686860111156122f657600080fd5b858560208301376000602087830101525050509392505050565b60006020828403121561232257600080fd5b813567ffffffffffffffff81111561233957600080fd5b8201601f8101841361234a57600080fd5b61149c8482356020840161229a565b803561ffff8116811461225557600080fd5b6000806040838503121561237e57600080fd5b6123878361223e565b915061239560208401612359565b90509250929050565b6000806000606084860312156123b357600080fd5b6123bc8461223e565b92506123ca6020850161223e565b9150604084013590509250925092565b6000602082840312156123ec57600080fd5b611e9f8261223e565b6000806040838503121561240857600080fd5b6124118361223e565b91506020830135801515811461242657600080fd5b809150509250929050565b6000806000806080858703121561244757600080fd5b6124508561223e565b935061245e6020860161223e565b925060408501359150606085013567ffffffffffffffff81111561248157600080fd5b8501601f8101871361249257600080fd5b6124a18782356020840161229a565b91505092959194509250565b6000806000606084860312156124c257600080fd5b505081359360208301359350604090920135919050565b6000602082840312156124eb57600080fd5b611e9f82612359565b6000806040838503121561250757600080fd5b6125108361223e565b91506123956020840161223e565b600181811c9082168061253257607f821691505b6020821081141561255357634e487b7160e01b600052602260045260246000fd5b50919050565b60208082526027908201527f43727970746f4d6f6e6b65797343686172733a206f776e6572206973206e6f746040820152661039b2b73232b960c91b606082015260800190565b6020808252818101527f4f776e61626c653a2063616c6c6572206973206e6f7420746865206f776e6572604082015260600190565b60208082526031908201527f4552433732313a207472616e736665722063616c6c6572206973206e6f74206f6040820152701ddb995c881b9bdc88185c1c1c9bdd9959607a1b606082015260800190565b634e487b7160e01b600052603260045260246000fd5b634e487b7160e01b600052601160045260246000fd5b600082198211156126655761266561263c565b500190565b634e487b7160e01b600052601260045260246000fd5b60008261268f5761268f61266a565b500690565b602f60f81b8152600082516126b08160018501602087016121ba565b632e706e6760e01b6001939091019283015250600501919050565b6000828210156126dd576126dd61263c565b500390565b60208082526032908201527f4552433732313a207472616e7366657220746f206e6f6e20455243373231526560408201527131b2b4bb32b91034b6b83632b6b2b73a32b960711b606082015260800190565b600083516127468184602088016121ba565b83519083019061275a8183602088016121ba565b01949350505050565b600060ff821660ff84168060ff038211156127805761278061263c565b019392505050565b600060001982141561279c5761279c61263c565b5060010190565b6000826127b2576127b261266a565b500490565b6001600160a01b03858116825284166020820152604081018390526080606082018190526000906127ea908301846121e6565b9695505050505050565b60006020828403121561280657600080fd5b8151611e9f81612187565b634e487b7160e01b600052603160045260246000fdfea2646970667358221220e8ecd33d697af41612cf314643902c8ae272275859e88fa28991337e9e67666564736f6c634300080b0033",
    "sourcePath": "c:/Users/Joao/Documents/cryptomonkeysgame/crypto_game_boilerplate/contracts/nft_creation/CryptoMonkeyChars.sol",
    "compiler": {
        "name": "solc",
        "version": "0.8.11+commit.d7f03943"
    },
    "functionHashes": {
        "_tokenIds()": "aa46a400",
        "approve(address,uint256)": "095ea7b3",
        "balanceOf(address)": "70a08231",
        "baseUriString()": "59cfb23d",
        "getApproved(uint256)": "081812fc",
        "getNftData(uint256)": "a802d82b",
        "isApprovedForAll(address,address)": "e985e9c5",
        "levelUpCost()": "fa1f9772",
        "mintCost(uint16)": "d8471d47",
        "mintNft(address,uint16)": "1f8c5630",
        "name()": "06fdde03",
        "openNftBox(uint256)": "08ad92ae",
        "owner()": "8da5cb5b",
        "ownerOf(uint256)": "6352211e",
        "renounceOwnership()": "715018a6",
        "safeTransferFrom(address,address,uint256)": "42842e0e",
        "safeTransferFrom(address,address,uint256,bytes)": "b88d4fde",
        "setApprovalForAll(address,bool)": "a22cb465",
        "setBaseUriString(string)": "1594d8cb",
        "setLevelUpCost(uint256)": "c86dae0f",
        "setMintCost(uint256,uint256,uint256)": "d3c130de",
        "setTokenAddress(address)": "26a4e8d2",
        "supportsInterface(bytes4)": "01ffc9a7",
        "symbol()": "95d89b41",
        "tokenAddress()": "9d76ea58",
        "tokenByIndex(uint256)": "4f6ccce7",
        "tokenOfOwnerByIndex(address,uint256)": "2f745c59",
        "tokenURI(uint256)": "c87b56dd",
        "tokensAttributes(uint256)": "bf9d743a",
        "totalSupply()": "18160ddd",
        "transferFrom(address,address,uint256)": "23b872dd",
        "transferOwnership(address)": "f2fde38b",
        "upgradeNft(address,uint256)": "e9cb499b"
    },
    "gasEstimates": {
        "creation": {
            "codeDepositCost": "2066600",
            "executionCost": "infinite",
            "totalCost": "infinite"
        },
        "external": {
            "_tokenIds()": "2387",
            "approve(address,uint256)": "infinite",
            "balanceOf(address)": "2700",
            "baseUriString()": "infinite",
            "getApproved(uint256)": "4822",
            "getNftData(uint256)": "6910",
            "isApprovedForAll(address,address)": "infinite",
            "levelUpCost()": "2427",
            "mintCost(uint16)": "2551",
            "mintNft(address,uint16)": "infinite",
            "name()": "infinite",
            "openNftBox(uint256)": "29106",
            "owner()": "2399",
            "ownerOf(uint256)": "2645",
            "renounceOwnership()": "28163",
            "safeTransferFrom(address,address,uint256)": "infinite",
            "safeTransferFrom(address,address,uint256,bytes)": "infinite",
            "setApprovalForAll(address,bool)": "26731",
            "setBaseUriString(string)": "infinite",
            "setLevelUpCost(uint256)": "24531",
            "setMintCost(uint256,uint256,uint256)": "68854",
            "setTokenAddress(address)": "26779",
            "supportsInterface(bytes4)": "infinite",
            "symbol()": "infinite",
            "tokenAddress()": "2449",
            "tokenByIndex(uint256)": "6760",
            "tokenOfOwnerByIndex(address,uint256)": "5020",
            "tokenURI(uint256)": "infinite",
            "tokensAttributes(uint256)": "6882",
            "totalSupply()": "2371",
            "transferFrom(address,address,uint256)": "infinite",
            "transferOwnership(address)": "28422",
            "upgradeNft(address,uint256)": "infinite"
        },
        "internal": {
            "_baseURI()": "infinite",
            "_beforeTokenTransfer(address,address,uint256)": "infinite",
            "_burn(uint256)": "infinite",
            "_getMonkeyType(uint256,uint16)": "infinite",
            "_setTokenAttributes(uint256,uint16)": "infinite",
            "randomElement(uint256)": "infinite"
        }
    }
}