{
    "contractName": "CryptoMonkeyChars",
    "abi": [
        {
            "inputs": [
                {
                    "internalType": "address",
                    "name": "_tokenAddress",
                    "type": "address"
                },
                {
                    "internalType": "uint256",
                    "name": "_mintCostBasic",
                    "type": "uint256"
                },
                {
                    "internalType": "uint256",
                    "name": "_mintCostRare",
                    "type": "uint256"
                },
                {
                    "internalType": "uint256",
                    "name": "_mintCostLegendary",
                    "type": "uint256"
                },
                {
                    "internalType": "uint256",
                    "name": "_levelUpCost",
                    "type": "uint256"
                },
                {
                    "internalType": "string",
                    "name": "_baseUriString",
                    "type": "string"
                }
            ],
            "stateMutability": "nonpayable",
            "type": "constructor"
        },
        {
            "anonymous": false,
            "inputs": [
                {
                    "indexed": true,
                    "internalType": "address",
                    "name": "owner",
                    "type": "address"
                },
                {
                    "indexed": true,
                    "internalType": "address",
                    "name": "approved",
                    "type": "address"
                },
                {
                    "indexed": true,
                    "internalType": "uint256",
                    "name": "tokenId",
                    "type": "uint256"
                }
            ],
            "name": "Approval",
            "type": "event"
        },
        {
            "anonymous": false,
            "inputs": [
                {
                    "indexed": true,
                    "internalType": "address",
                    "name": "owner",
                    "type": "address"
                },
                {
                    "indexed": true,
                    "internalType": "address",
                    "name": "operator",
                    "type": "address"
                },
                {
                    "indexed": false,
                    "internalType": "bool",
                    "name": "approved",
                    "type": "bool"
                }
            ],
            "name": "ApprovalForAll",
            "type": "event"
        },
        {
            "anonymous": false,
            "inputs": [
                {
                    "indexed": true,
                    "internalType": "address",
                    "name": "previousOwner",
                    "type": "address"
                },
                {
                    "indexed": true,
                    "internalType": "address",
                    "name": "newOwner",
                    "type": "address"
                }
            ],
            "name": "OwnershipTransferred",
            "type": "event"
        },
        {
            "anonymous": false,
            "inputs": [
                {
                    "indexed": true,
                    "internalType": "address",
                    "name": "from",
                    "type": "address"
                },
                {
                    "indexed": true,
                    "internalType": "address",
                    "name": "to",
                    "type": "address"
                },
                {
                    "indexed": true,
                    "internalType": "uint256",
                    "name": "tokenId",
                    "type": "uint256"
                }
            ],
            "name": "Transfer",
            "type": "event"
        },
        {
            "inputs": [],
            "name": "_tokenIds",
            "outputs": [
                {
                    "internalType": "uint256",
                    "name": "_value",
                    "type": "uint256"
                }
            ],
            "stateMutability": "view",
            "type": "function"
        },
        {
            "inputs": [
                {
                    "internalType": "address",
                    "name": "to",
                    "type": "address"
                },
                {
                    "internalType": "uint256",
                    "name": "tokenId",
                    "type": "uint256"
                }
            ],
            "name": "approve",
            "outputs": [],
            "stateMutability": "nonpayable",
            "type": "function"
        },
        {
            "inputs": [
                {
                    "internalType": "address",
                    "name": "owner",
                    "type": "address"
                }
            ],
            "name": "balanceOf",
            "outputs": [
                {
                    "internalType": "uint256",
                    "name": "",
                    "type": "uint256"
                }
            ],
            "stateMutability": "view",
            "type": "function"
        },
        {
            "inputs": [],
            "name": "baseUriString",
            "outputs": [
                {
                    "internalType": "string",
                    "name": "",
                    "type": "string"
                }
            ],
            "stateMutability": "view",
            "type": "function"
        },
        {
            "inputs": [
                {
                    "internalType": "uint256",
                    "name": "tokenId",
                    "type": "uint256"
                }
            ],
            "name": "getApproved",
            "outputs": [
                {
                    "internalType": "address",
                    "name": "",
                    "type": "address"
                }
            ],
            "stateMutability": "view",
            "type": "function"
        },
        {
            "inputs": [
                {
                    "internalType": "uint256",
                    "name": "nftIndex",
                    "type": "uint256"
                }
            ],
            "name": "getNftData",
            "outputs": [
                {
                    "internalType": "uint8",
                    "name": "",
                    "type": "uint8"
                },
                {
                    "internalType": "uint8",
                    "name": "",
                    "type": "uint8"
                },
                {
                    "internalType": "uint256",
                    "name": "",
                    "type": "uint256"
                },
                {
                    "internalType": "bool",
                    "name": "",
                    "type": "bool"
                },
                {
                    "internalType": "uint16",
                    "name": "",
                    "type": "uint16"
                }
            ],
            "stateMutability": "view",
            "type": "function"
        },
        {
            "inputs": [
                {
                    "internalType": "address",
                    "name": "owner",
                    "type": "address"
                },
                {
                    "internalType": "address",
                    "name": "operator",
                    "type": "address"
                }
            ],
            "name": "isApprovedForAll",
            "outputs": [
                {
                    "internalType": "bool",
                    "name": "",
                    "type": "bool"
                }
            ],
            "stateMutability": "view",
            "type": "function"
        },
        {
            "inputs": [],
            "name": "levelUpCost",
            "outputs": [
                {
                    "internalType": "uint256",
                    "name": "",
                    "type": "uint256"
                }
            ],
            "stateMutability": "view",
            "type": "function"
        },
        {
            "inputs": [
                {
                    "internalType": "uint16",
                    "name": "",
                    "type": "uint16"
                }
            ],
            "name": "mintCost",
            "outputs": [
                {
                    "internalType": "uint256",
                    "name": "",
                    "type": "uint256"
                }
            ],
            "stateMutability": "view",
            "type": "function"
        },
        {
            "inputs": [
                {
                    "internalType": "address",
                    "name": "recipient",
                    "type": "address"
                },
                {
                    "internalType": "uint16",
                    "name": "_probabilityMapping",
                    "type": "uint16"
                }
            ],
            "name": "mintNft",
            "outputs": [],
            "stateMutability": "nonpayable",
            "type": "function"
        },
        {
            "inputs": [],
            "name": "name",
            "outputs": [
                {
                    "internalType": "string",
                    "name": "",
                    "type": "string"
                }
            ],
            "stateMutability": "view",
            "type": "function"
        },
        {
            "inputs": [],
            "name": "owner",
            "outputs": [
                {
                    "internalType": "address",
                    "name": "",
                    "type": "address"
                }
            ],
            "stateMutability": "view",
            "type": "function"
        },
        {
            "inputs": [
                {
                    "internalType": "uint256",
                    "name": "tokenId",
                    "type": "uint256"
                }
            ],
            "name": "ownerOf",
            "outputs": [
                {
                    "internalType": "address",
                    "name": "",
                    "type": "address"
                }
            ],
            "stateMutability": "view",
            "type": "function"
        },
        {
            "inputs": [],
            "name": "renounceOwnership",
            "outputs": [],
            "stateMutability": "nonpayable",
            "type": "function"
        },
        {
            "inputs": [
                {
                    "internalType": "address",
                    "name": "from",
                    "type": "address"
                },
                {
                    "internalType": "address",
                    "name": "to",
                    "type": "address"
                },
                {
                    "internalType": "uint256",
                    "name": "tokenId",
                    "type": "uint256"
                }
            ],
            "name": "safeTransferFrom",
            "outputs": [],
            "stateMutability": "nonpayable",
            "type": "function"
        },
        {
            "inputs": [
                {
                    "internalType": "address",
                    "name": "from",
                    "type": "address"
                },
                {
                    "internalType": "address",
                    "name": "to",
                    "type": "address"
                },
                {
                    "internalType": "uint256",
                    "name": "tokenId",
                    "type": "uint256"
                },
                {
                    "internalType": "bytes",
                    "name": "_data",
                    "type": "bytes"
                }
            ],
            "name": "safeTransferFrom",
            "outputs": [],
            "stateMutability": "nonpayable",
            "type": "function"
        },
        {
            "inputs": [
                {
                    "internalType": "address",
                    "name": "operator",
                    "type": "address"
                },
                {
                    "internalType": "bool",
                    "name": "approved",
                    "type": "bool"
                }
            ],
            "name": "setApprovalForAll",
            "outputs": [],
            "stateMutability": "nonpayable",
            "type": "function"
        },
        {
            "inputs": [
                {
                    "internalType": "string",
                    "name": "_baseUriString",
                    "type": "string"
                }
            ],
            "name": "setBaseUriString",
            "outputs": [],
            "stateMutability": "nonpayable",
            "type": "function"
        },
        {
            "inputs": [
                {
                    "internalType": "uint256",
                    "name": "_cost",
                    "type": "uint256"
                }
            ],
            "name": "setLevelUpCost",
            "outputs": [],
            "stateMutability": "nonpayable",
            "type": "function"
        },
        {
            "inputs": [
                {
                    "internalType": "uint256",
                    "name": "_cost1",
                    "type": "uint256"
                },
                {
                    "internalType": "uint256",
                    "name": "_cost2",
                    "type": "uint256"
                },
                {
                    "internalType": "uint256",
                    "name": "_cost3",
                    "type": "uint256"
                }
            ],
            "name": "setMintCost",
            "outputs": [],
            "stateMutability": "nonpayable",
            "type": "function"
        },
        {
            "inputs": [
                {
                    "internalType": "address",
                    "name": "_address",
                    "type": "address"
                }
            ],
            "name": "setTokenAddress",
            "outputs": [],
            "stateMutability": "nonpayable",
            "type": "function"
        },
        {
            "inputs": [
                {
                    "internalType": "bytes4",
                    "name": "interfaceId",
                    "type": "bytes4"
                }
            ],
            "name": "supportsInterface",
            "outputs": [
                {
                    "internalType": "bool",
                    "name": "",
                    "type": "bool"
                }
            ],
            "stateMutability": "view",
            "type": "function"
        },
        {
            "inputs": [],
            "name": "symbol",
            "outputs": [
                {
                    "internalType": "string",
                    "name": "",
                    "type": "string"
                }
            ],
            "stateMutability": "view",
            "type": "function"
        },
        {
            "inputs": [],
            "name": "tokenAddress",
            "outputs": [
                {
                    "internalType": "address",
                    "name": "",
                    "type": "address"
                }
            ],
            "stateMutability": "view",
            "type": "function"
        },
        {
            "inputs": [
                {
                    "internalType": "uint256",
                    "name": "index",
                    "type": "uint256"
                }
            ],
            "name": "tokenByIndex",
            "outputs": [
                {
                    "internalType": "uint256",
                    "name": "",
                    "type": "uint256"
                }
            ],
            "stateMutability": "view",
            "type": "function"
        },
        {
            "inputs": [
                {
                    "internalType": "address",
                    "name": "owner",
                    "type": "address"
                },
                {
                    "internalType": "uint256",
                    "name": "index",
                    "type": "uint256"
                }
            ],
            "name": "tokenOfOwnerByIndex",
            "outputs": [
                {
                    "internalType": "uint256",
                    "name": "",
                    "type": "uint256"
                }
            ],
            "stateMutability": "view",
            "type": "function"
        },
        {
            "inputs": [
                {
                    "internalType": "uint256",
                    "name": "tokenId",
                    "type": "uint256"
                }
            ],
            "name": "tokenURI",
            "outputs": [
                {
                    "internalType": "string",
                    "name": "",
                    "type": "string"
                }
            ],
            "stateMutability": "view",
            "type": "function"
        },
        {
            "inputs": [
                {
                    "internalType": "uint256",
                    "name": "",
                    "type": "uint256"
                }
            ],
            "name": "tokensAttributes",
            "outputs": [
                {
                    "internalType": "uint8",
                    "name": "monkeyType",
                    "type": "uint8"
                },
                {
                    "internalType": "uint8",
                    "name": "charLevel",
                    "type": "uint8"
                },
                {
                    "internalType": "uint256",
                    "name": "mintTime",
                    "type": "uint256"
                },
                {
                    "internalType": "bool",
                    "name": "openedBox",
                    "type": "bool"
                },
                {
                    "internalType": "uint16",
                    "name": "boxType",
                    "type": "uint16"
                }
            ],
            "stateMutability": "view",
            "type": "function"
        },
        {
            "inputs": [],
            "name": "totalSupply",
            "outputs": [
                {
                    "internalType": "uint256",
                    "name": "",
                    "type": "uint256"
                }
            ],
            "stateMutability": "view",
            "type": "function"
        },
        {
            "inputs": [
                {
                    "internalType": "address",
                    "name": "from",
                    "type": "address"
                },
                {
                    "internalType": "address",
                    "name": "to",
                    "type": "address"
                },
                {
                    "internalType": "uint256",
                    "name": "tokenId",
                    "type": "uint256"
                }
            ],
            "name": "transferFrom",
            "outputs": [],
            "stateMutability": "nonpayable",
            "type": "function"
        },
        {
            "inputs": [
                {
                    "internalType": "address",
                    "name": "newOwner",
                    "type": "address"
                }
            ],
            "name": "transferOwnership",
            "outputs": [],
            "stateMutability": "nonpayable",
            "type": "function"
        },
        {
            "inputs": [
                {
                    "internalType": "address",
                    "name": "recipient",
                    "type": "address"
                },
                {
                    "internalType": "uint256",
                    "name": "nftIndex",
                    "type": "uint256"
                }
            ],
            "name": "upgradeNft",
            "outputs": [],
            "stateMutability": "nonpayable",
            "type": "function"
        }
    ],
    "bytecode": "60806040523480156200001157600080fd5b5060405162002b7338038062002b73833981016040819052620000349162000287565b604080518082018252600d81526c43727970746f4d6f6e6b65797360981b602080830191825283518085019094526008845267434d4f4e4b45595360c01b9084015281519192916200008991600091620001cb565b5080516200009f906001906020840190620001cb565b505050620000bc620000b66200017560201b60201c565b62000179565b600e80546001600160a01b0319166001600160a01b038816179055600f60209081527f169f97de0d9a84d840042b17d3c6b9638b3d6fd9024c9eb0c7a306a17b49f88f8690557fa74ba3945261e09fde15ba3db55005b205e61eeb4ad811ac0faa2b315bffeead85905560036000527f45f76dafbbad695564362934e24d72eedc57f9fc1a65f39bca62176cc829682884905560108390558151620001689160119190840190620001cb565b50505050505050620003eb565b3390565b600b80546001600160a01b038381166001600160a01b0319831681179093556040519116919082907f8be0079c531659141344cd1fd0a4f28419497f9722a3daafe3b4186f6b6457e090600090a35050565b828054620001d990620003ae565b90600052602060002090601f016020900481019282620001fd576000855562000248565b82601f106200021857805160ff191683800117855562000248565b8280016001018555821562000248579182015b82811115620002485782518255916020019190600101906200022b565b50620002569291506200025a565b5090565b5b808211156200025657600081556001016200025b565b634e487b7160e01b600052604160045260246000fd5b60008060008060008060c08789031215620002a157600080fd5b86516001600160a01b0381168114620002b957600080fd5b60208881015160408a015160608b015160808c015160a08d0151959b5092995090975095509350906001600160401b0380821115620002f757600080fd5b818a0191508a601f8301126200030c57600080fd5b81518181111562000321576200032162000271565b604051601f8201601f19908116603f011681019083821181831017156200034c576200034c62000271565b816040528281528d868487010111156200036557600080fd5b600093505b828410156200038957848401860151818501870152928501926200036a565b828411156200039b5760008684830101525b8096505050505050509295509295509295565b600181811c90821680620003c357607f821691505b60208210811415620003e557634e487b7160e01b600052602260045260246000fd5b50919050565b61277880620003fb6000396000f3fe608060405234801561001057600080fd5b50600436106101f05760003560e01c80638da5cb5b1161010f578063c86dae0f116100a2578063e985e9c511610071578063e985e9c5146104b7578063e9cb499b146104f3578063f2fde38b14610506578063fa1f97721461051957600080fd5b8063c86dae0f1461045e578063c87b56dd14610471578063d3c130de14610484578063d8471d471461049757600080fd5b8063a802d82b116100de578063a802d82b1461037e578063aa46a400146103fa578063b88d4fde14610404578063bf9d743a1461041757600080fd5b80638da5cb5b1461033f57806395d89b41146103505780639d76ea5814610358578063a22cb4651461036b57600080fd5b806326a4e8d21161018757806359cfb23d1161015657806359cfb23d146103095780636352211e1461031157806370a0823114610324578063715018a61461033757600080fd5b806326a4e8d2146102bd5780632f745c59146102d057806342842e0e146102e35780634f6ccce7146102f657600080fd5b80631594d8cb116101c35780631594d8cb1461027257806318160ddd146102855780631f8c56301461029757806323b872dd146102aa57600080fd5b806301ffc9a7146101f557806306fdde031461021d578063081812fc14610232578063095ea7b31461025d575b600080fd5b6102086102033660046120ff565b610522565b60405190151581526020015b60405180910390f35b610225610533565b6040516102149190612174565b610245610240366004612187565b6105c5565b6040516001600160a01b039091168152602001610214565b61027061026b3660046121bc565b610652565b005b610270610280366004612272565b610768565b6008545b604051908152602001610214565b6102706102a53660046122cd565b6107a9565b6102706102b8366004612300565b610909565b6102706102cb36600461233c565b61093a565b6102896102de3660046121bc565b610986565b6102706102f1366004612300565b610a1c565b610289610304366004612187565b610a37565b610225610aca565b61024561031f366004612187565b610b58565b61028961033236600461233c565b610bcf565b610270610c56565b600b546001600160a01b0316610245565b610225610c8c565b600e54610245906001600160a01b031681565b610270610379366004612357565b610c9b565b6103c761038c366004612187565b6000908152600d602052604090208054600182015460029092015460ff808316946101009384900482169493918316929190910461ffff1690565b6040805160ff9687168152959094166020860152928401919091521515606083015261ffff16608082015260a001610214565b600c546102899081565b610270610412366004612393565b610ca6565b6103c7610425366004612187565b600d6020526000908152604090208054600182015460029092015460ff80831693610100938490048216939092918216910461ffff1685565b61027061046c366004612187565b610cd8565b61022561047f366004612187565b610d07565b61027061049236600461240f565b610d12565b6102896104a536600461243b565b600f6020526000908152604090205481565b6102086104c5366004612456565b6001600160a01b03918216600090815260056020908152604080832093909416825291909152205460ff1690565b6102706105013660046121bc565b610db1565b61027061051436600461233c565b610fa2565b61028960105481565b600061052d8261103d565b92915050565b60606000805461054290612480565b80601f016020809104026020016040519081016040528092919081815260200182805461056e90612480565b80156105bb5780601f10610590576101008083540402835291602001916105bb565b820191906000526020600020905b81548152906001019060200180831161059e57829003601f168201915b5050505050905090565b60006105d082611062565b6106365760405162461bcd60e51b815260206004820152602c60248201527f4552433732313a20617070726f76656420717565727920666f72206e6f6e657860448201526b34b9ba32b73a103a37b5b2b760a11b60648201526084015b60405180910390fd5b506000908152600460205260409020546001600160a01b031690565b600061065d82610b58565b9050806001600160a01b0316836001600160a01b031614156106cb5760405162461bcd60e51b815260206004820152602160248201527f4552433732313a20617070726f76616c20746f2063757272656e74206f776e656044820152603960f91b606482015260840161062d565b336001600160a01b03821614806106e757506106e781336104c5565b6107595760405162461bcd60e51b815260206004820152603860248201527f4552433732313a20617070726f76652063616c6c6572206973206e6f74206f7760448201527f6e6572206e6f7220617070726f76656420666f7220616c6c0000000000000000606482015260840161062d565b610763838361107f565b505050565b600b546001600160a01b031633146107925760405162461bcd60e51b815260040161062d906124bb565b80516107a5906011906020840190612050565b5050565b8061ffff16600114806107c057508061ffff166002145b806107cf57508061ffff166003145b6108585760405162461bcd60e51b815260206004820152604e60248201527f43727970746f4d6f6e6b657943686172733a206d696e744e66743a205f70726f60448201527f626162696c6974794d617070696e67206d7573742062656c6f6e6720746f207560648201526d696e7431365b312c20322c20335d60901b608482015260a40161062d565b600e5461ffff82166000908152600f60205260409081902054905163079cc67960e41b815233600482015260248101919091526001600160a01b039091169081906379cc679090604401600060405180830381600087803b1580156108bc57600080fd5b505af11580156108d0573d6000803e3d6000fd5b505050506108e2600c80546001019055565b60006108ed600c5490565b90506108f984826110ed565b610903818461122c565b50505050565b610913338261131c565b61092f5760405162461bcd60e51b815260040161062d906124f0565b610763838383611406565b600b546001600160a01b031633146109645760405162461bcd60e51b815260040161062d906124bb565b600e80546001600160a01b0319166001600160a01b0392909216919091179055565b600061099183610bcf565b82106109f35760405162461bcd60e51b815260206004820152602b60248201527f455243373231456e756d657261626c653a206f776e657220696e646578206f7560448201526a74206f6620626f756e647360a81b606482015260840161062d565b506001600160a01b03919091166000908152600660209081526040808320938352929052205490565b61076383838360405180602001604052806000815250610ca6565b6000610a4260085490565b8210610aa55760405162461bcd60e51b815260206004820152602c60248201527f455243373231456e756d657261626c653a20676c6f62616c20696e646578206f60448201526b7574206f6620626f756e647360a01b606482015260840161062d565b60088281548110610ab857610ab8612541565b90600052602060002001549050919050565b60118054610ad790612480565b80601f0160208091040260200160405190810160405280929190818152602001828054610b0390612480565b8015610b505780601f10610b2557610100808354040283529160200191610b50565b820191906000526020600020905b815481529060010190602001808311610b3357829003601f168201915b505050505081565b6000818152600260205260408120546001600160a01b03168061052d5760405162461bcd60e51b815260206004820152602960248201527f4552433732313a206f776e657220717565727920666f72206e6f6e657869737460448201526832b73a103a37b5b2b760b91b606482015260840161062d565b60006001600160a01b038216610c3a5760405162461bcd60e51b815260206004820152602a60248201527f4552433732313a2062616c616e636520717565727920666f7220746865207a65604482015269726f206164647265737360b01b606482015260840161062d565b506001600160a01b031660009081526003602052604090205490565b600b546001600160a01b03163314610c805760405162461bcd60e51b815260040161062d906124bb565b610c8a60006115ad565b565b60606001805461054290612480565b6107a53383836115ff565b610cb0338361131c565b610ccc5760405162461bcd60e51b815260040161062d906124f0565b610903848484846116ce565b600b546001600160a01b03163314610d025760405162461bcd60e51b815260040161062d906124bb565b601055565b606061052d82611701565b600b546001600160a01b03163314610d3c5760405162461bcd60e51b815260040161062d906124bb565b600f6020527f169f97de0d9a84d840042b17d3c6b9638b3d6fd9024c9eb0c7a306a17b49f88f929092557fa74ba3945261e09fde15ba3db55005b205e61eeb4ad811ac0faa2b315bffeead5560036000527f45f76dafbbad695564362934e24d72eedc57f9fc1a65f39bca62176cc829682855565b816001600160a01b0316610dc482610b58565b6001600160a01b031614610e2d5760405162461bcd60e51b815260206004820152602a60248201527f43727970746f4d6f6e6b65797343686172733a206f776e6572206973206e6f74604482015269081c9958da5c1a595b9d60b21b606482015260840161062d565b33610e3782610b58565b6001600160a01b031614610e9d5760405162461bcd60e51b815260206004820152602760248201527f43727970746f4d6f6e6b65797343686172733a206f776e6572206973206e6f746044820152661039b2b73232b960c91b606482015260840161062d565b6000818152600d602052604090205460ff61010090910416600114610f185760405162461bcd60e51b815260206004820152602b60248201527f43727970746f4d6f6e6b65797343686172733a206368617220697320616c726560448201526a30b23c903632bb32b6101960a91b606482015260840161062d565b600e5460105460405163079cc67960e41b81526001600160a01b038581166004830152602482019290925291169081906379cc679090604401600060405180830381600087803b158015610f6b57600080fd5b505af1158015610f7f573d6000803e3d6000fd5b50505060009283525050600d60205260409020805461ff00191661020017905550565b600b546001600160a01b03163314610fcc5760405162461bcd60e51b815260040161062d906124bb565b6001600160a01b0381166110315760405162461bcd60e51b815260206004820152602660248201527f4f776e61626c653a206e6577206f776e657220697320746865207a65726f206160448201526564647265737360d01b606482015260840161062d565b61103a816115ad565b50565b60006001600160e01b0319821663780e9d6360e01b148061052d575061052d82611863565b6000908152600260205260409020546001600160a01b0316151590565b600081815260046020526040902080546001600160a01b0319166001600160a01b03841690811790915581906110b482610b58565b6001600160a01b03167f8c5be1e5ebec7d5bd14f71427d1e84f3dd0314c0f7b2291e5b200ac8c7c3b92560405160405180910390a45050565b6001600160a01b0382166111435760405162461bcd60e51b815260206004820181905260248201527f4552433732313a206d696e7420746f20746865207a65726f2061646472657373604482015260640161062d565b61114c81611062565b156111995760405162461bcd60e51b815260206004820152601c60248201527f4552433732313a20746f6b656e20616c7265616479206d696e74656400000000604482015260640161062d565b6111a5600083836118b3565b6001600160a01b03821660009081526003602052604081208054600192906111ce90849061256d565b909155505060008181526002602052604080822080546001600160a01b0319166001600160a01b03861690811790915590518392907fddf252ad1be2c89b69c2b068fc378daa952ba7f163c4a11628f55a4df523b3ef908290a45050565b600061124c606461123c856118be565b611246919061259b565b83611923565b6040805160a08101825260ff838116808352600160208085018281524286880190815260006060880181815261ffff8d811660808b019081528f8452600d9096529990912097518854935190881661ffff19909416939093176101009390971683029690961787555192860192909255925160029094018054935162ffffff1990941694151562ffff00191694909417929094169093021790559091506107639084906112f890611aa7565b60405160200161130891906125af565b604051602081830303815290604052611ba5565b600061132782611062565b6113885760405162461bcd60e51b815260206004820152602c60248201527f4552433732313a206f70657261746f7220717565727920666f72206e6f6e657860448201526b34b9ba32b73a103a37b5b2b760a11b606482015260840161062d565b600061139383610b58565b9050806001600160a01b0316846001600160a01b031614806113ce5750836001600160a01b03166113c3846105c5565b6001600160a01b0316145b806113fe57506001600160a01b0380821660009081526005602090815260408083209388168352929052205460ff165b949350505050565b826001600160a01b031661141982610b58565b6001600160a01b03161461147d5760405162461bcd60e51b815260206004820152602560248201527f4552433732313a207472616e736665722066726f6d20696e636f72726563742060448201526437bbb732b960d91b606482015260840161062d565b6001600160a01b0382166114df5760405162461bcd60e51b8152602060048201526024808201527f4552433732313a207472616e7366657220746f20746865207a65726f206164646044820152637265737360e01b606482015260840161062d565b6114ea8383836118b3565b6114f560008261107f565b6001600160a01b038316600090815260036020526040812080546001929061151e9084906125e6565b90915550506001600160a01b038216600090815260036020526040812080546001929061154c90849061256d565b909155505060008181526002602052604080822080546001600160a01b0319166001600160a01b0386811691821790925591518493918716917fddf252ad1be2c89b69c2b068fc378daa952ba7f163c4a11628f55a4df523b3ef91a4505050565b600b80546001600160a01b038381166001600160a01b0319831681179093556040519116919082907f8be0079c531659141344cd1fd0a4f28419497f9722a3daafe3b4186f6b6457e090600090a35050565b816001600160a01b0316836001600160a01b031614156116615760405162461bcd60e51b815260206004820152601960248201527f4552433732313a20617070726f766520746f2063616c6c657200000000000000604482015260640161062d565b6001600160a01b03838116600081815260056020908152604080832094871680845294825291829020805460ff191686151590811790915591519182527f17307eab39ab6107e8899845ad3d59bd9653f200f220920489ca2b5937696c31910160405180910390a3505050565b6116d9848484611406565b6116e584848484611c30565b6109035760405162461bcd60e51b815260040161062d906125fd565b606061170c82611062565b6117725760405162461bcd60e51b815260206004820152603160248201527f45524337323155524953746f726167653a2055524920717565727920666f72206044820152703737b732bc34b9ba32b73a103a37b5b2b760791b606482015260840161062d565b6000828152600a60205260408120805461178b90612480565b80601f01602080910402602001604051908101604052809291908181526020018280546117b790612480565b80156118045780601f106117d957610100808354040283529160200191611804565b820191906000526020600020905b8154815290600101906020018083116117e757829003601f168201915b505050505090506000611815611d2e565b9050805160001415611828575092915050565b81511561185a57808260405160200161184292919061264f565b60405160208183030381529060405292505050919050565b6113fe84611d3d565b60006001600160e01b031982166380ac58cd60e01b148061189457506001600160e01b03198216635b5e139f60e01b145b8061052d57506301ffc9a760e01b6001600160e01b031983161461052d565b610763838383611e08565b60004442336118cc600c5490565b6040805160208101959095528401929092526bffffffffffffffffffffffff19606091821b169083015260748201526094810183905260b40160408051601f19818403018152919052805160209091012092915050565b60008060008060008561ffff166001141561194c57506044925060169150600890506002611989565b8561ffff166002141561196d5750601e92506028915060149050600a611989565b8561ffff16600314156119895750600092506028915081905060145b8360ff168710156119b55761199f60048861259b565b6119aa90600161256d565b94505050505061052d565b6119bf838561267e565b60ff168710156119df576119d460038861259b565b6119aa90600561256d565b816119ea848661267e565b6119f4919061267e565b60ff16871015611a1457611a0960028861259b565b6119aa90600861256d565b8082611a20858761267e565b611a2a919061267e565b611a34919061267e565b60ff16871015611a5457611a4960028861259b565b6119aa90600a61256d565b60405162461bcd60e51b815260206004820152602260248201527f4661696c75726520696e2072616e646f6d2073656c656374696f6e206d6574686044820152611bd960f21b606482015260840161062d565b606081611acb5750506040805180820190915260018152600360fc1b602082015290565b8160005b8115611af55780611adf816126a3565b9150611aee9050600a836126be565b9150611acf565b60008167ffffffffffffffff811115611b1057611b106121e6565b6040519080825280601f01601f191660200182016040528015611b3a576020820181803683370190505b5090505b84156113fe57611b4f6001836125e6565b9150611b5c600a8661259b565b611b6790603061256d565b60f81b818381518110611b7c57611b7c612541565b60200101906001600160f81b031916908160001a905350611b9e600a866126be565b9450611b3e565b611bae82611062565b611c115760405162461bcd60e51b815260206004820152602e60248201527f45524337323155524953746f726167653a2055524920736574206f66206e6f6e60448201526d32bc34b9ba32b73a103a37b5b2b760911b606482015260840161062d565b6000828152600a60209081526040909120825161076392840190612050565b60006001600160a01b0384163b15611d2357604051630a85bd0160e11b81526001600160a01b0385169063150b7a0290611c749033908990889088906004016126d2565b6020604051808303816000875af1925050508015611caf575060408051601f3d908101601f19168201909252611cac9181019061270f565b60015b611d09573d808015611cdd576040519150601f19603f3d011682016040523d82523d6000602084013e611ce2565b606091505b508051611d015760405162461bcd60e51b815260040161062d906125fd565b805181602001fd5b6001600160e01b031916630a85bd0160e11b1490506113fe565b506001949350505050565b60606011805461054290612480565b6060611d4882611062565b611dac5760405162461bcd60e51b815260206004820152602f60248201527f4552433732314d657461646174613a2055524920717565727920666f72206e6f60448201526e3732bc34b9ba32b73a103a37b5b2b760891b606482015260840161062d565b6000611db6611d2e565b90506000815111611dd65760405180602001604052806000815250611e01565b80611de084611aa7565b604051602001611df192919061264f565b6040516020818303038152906040525b9392505050565b6001600160a01b038316611e6357611e5e81600880546000838152600960205260408120829055600182018355919091527ff3f7a9fe364faab93b216da50a3214154f22a0a2b415b23a84c8169e8b636ee30155565b611e86565b816001600160a01b0316836001600160a01b031614611e8657611e868382611ec0565b6001600160a01b038216611e9d5761076381611f5d565b826001600160a01b0316826001600160a01b03161461076357610763828261200c565b60006001611ecd84610bcf565b611ed791906125e6565b600083815260076020526040902054909150808214611f2a576001600160a01b03841660009081526006602090815260408083208584528252808320548484528184208190558352600790915290208190555b5060009182526007602090815260408084208490556001600160a01b039094168352600681528383209183525290812055565b600854600090611f6f906001906125e6565b60008381526009602052604081205460088054939450909284908110611f9757611f97612541565b906000526020600020015490508060088381548110611fb857611fb8612541565b6000918252602080832090910192909255828152600990915260408082208490558582528120556008805480611ff057611ff061272c565b6001900381819060005260206000200160009055905550505050565b600061201783610bcf565b6001600160a01b039093166000908152600660209081526040808320868452825280832085905593825260079052919091209190915550565b82805461205c90612480565b90600052602060002090601f01602090048101928261207e57600085556120c4565b82601f1061209757805160ff19168380011785556120c4565b828001600101855582156120c4579182015b828111156120c45782518255916020019190600101906120a9565b506120d09291506120d4565b5090565b5b808211156120d057600081556001016120d5565b6001600160e01b03198116811461103a57600080fd5b60006020828403121561211157600080fd5b8135611e01816120e9565b60005b8381101561213757818101518382015260200161211f565b838111156109035750506000910152565b6000815180845261216081602086016020860161211c565b601f01601f19169290920160200192915050565b602081526000611e016020830184612148565b60006020828403121561219957600080fd5b5035919050565b80356001600160a01b03811681146121b757600080fd5b919050565b600080604083850312156121cf57600080fd5b6121d8836121a0565b946020939093013593505050565b634e487b7160e01b600052604160045260246000fd5b600067ffffffffffffffff80841115612217576122176121e6565b604051601f8501601f19908116603f0116810190828211818310171561223f5761223f6121e6565b8160405280935085815286868601111561225857600080fd5b858560208301376000602087830101525050509392505050565b60006020828403121561228457600080fd5b813567ffffffffffffffff81111561229b57600080fd5b8201601f810184136122ac57600080fd5b6113fe848235602084016121fc565b803561ffff811681146121b757600080fd5b600080604083850312156122e057600080fd5b6122e9836121a0565b91506122f7602084016122bb565b90509250929050565b60008060006060848603121561231557600080fd5b61231e846121a0565b925061232c602085016121a0565b9150604084013590509250925092565b60006020828403121561234e57600080fd5b611e01826121a0565b6000806040838503121561236a57600080fd5b612373836121a0565b91506020830135801515811461238857600080fd5b809150509250929050565b600080600080608085870312156123a957600080fd5b6123b2856121a0565b93506123c0602086016121a0565b925060408501359150606085013567ffffffffffffffff8111156123e357600080fd5b8501601f810187136123f457600080fd5b612403878235602084016121fc565b91505092959194509250565b60008060006060848603121561242457600080fd5b505081359360208301359350604090920135919050565b60006020828403121561244d57600080fd5b611e01826122bb565b6000806040838503121561246957600080fd5b612472836121a0565b91506122f7602084016121a0565b600181811c9082168061249457607f821691505b602082108114156124b557634e487b7160e01b600052602260045260246000fd5b50919050565b6020808252818101527f4f776e61626c653a2063616c6c6572206973206e6f7420746865206f776e6572604082015260600190565b60208082526031908201527f4552433732313a207472616e736665722063616c6c6572206973206e6f74206f6040820152701ddb995c881b9bdc88185c1c1c9bdd9959607a1b606082015260800190565b634e487b7160e01b600052603260045260246000fd5b634e487b7160e01b600052601160045260246000fd5b6000821982111561258057612580612557565b500190565b634e487b7160e01b600052601260045260246000fd5b6000826125aa576125aa612585565b500690565b602f60f81b8152600082516125cb81600185016020870161211c565b632e706e6760e01b6001939091019283015250600501919050565b6000828210156125f8576125f8612557565b500390565b60208082526032908201527f4552433732313a207472616e7366657220746f206e6f6e20455243373231526560408201527131b2b4bb32b91034b6b83632b6b2b73a32b960711b606082015260800190565b6000835161266181846020880161211c565b83519083019061267581836020880161211c565b01949350505050565b600060ff821660ff84168060ff0382111561269b5761269b612557565b019392505050565b60006000198214156126b7576126b7612557565b5060010190565b6000826126cd576126cd612585565b500490565b6001600160a01b038581168252841660208201526040810183905260806060820181905260009061270590830184612148565b9695505050505050565b60006020828403121561272157600080fd5b8151611e01816120e9565b634e487b7160e01b600052603160045260246000fdfea26469706673582212204b0518efc8eef0a3e2f5847f52596876afaf763b9124fc405cfed2877fde4c6964736f6c634300080b0033",
    "sourcePath": "c:/Users/Joao/Documents/cryptomonkeysgame/crypto_game_boilerplate/contracts/nft_creation/CryptoMonkeyChars.sol",
    "compiler": {
        "name": "solc",
        "version": "0.8.11+commit.d7f03943"
    },
    "functionHashes": {
        "_tokenIds()": "aa46a400",
        "approve(address,uint256)": "095ea7b3",
        "balanceOf(address)": "70a08231",
        "baseUriString()": "59cfb23d",
        "getApproved(uint256)": "081812fc",
        "getNftData(uint256)": "a802d82b",
        "isApprovedForAll(address,address)": "e985e9c5",
        "levelUpCost()": "fa1f9772",
        "mintCost(uint16)": "d8471d47",
        "mintNft(address,uint16)": "1f8c5630",
        "name()": "06fdde03",
        "owner()": "8da5cb5b",
        "ownerOf(uint256)": "6352211e",
        "renounceOwnership()": "715018a6",
        "safeTransferFrom(address,address,uint256)": "42842e0e",
        "safeTransferFrom(address,address,uint256,bytes)": "b88d4fde",
        "setApprovalForAll(address,bool)": "a22cb465",
        "setBaseUriString(string)": "1594d8cb",
        "setLevelUpCost(uint256)": "c86dae0f",
        "setMintCost(uint256,uint256,uint256)": "d3c130de",
        "setTokenAddress(address)": "26a4e8d2",
        "supportsInterface(bytes4)": "01ffc9a7",
        "symbol()": "95d89b41",
        "tokenAddress()": "9d76ea58",
        "tokenByIndex(uint256)": "4f6ccce7",
        "tokenOfOwnerByIndex(address,uint256)": "2f745c59",
        "tokenURI(uint256)": "c87b56dd",
        "tokensAttributes(uint256)": "bf9d743a",
        "totalSupply()": "18160ddd",
        "transferFrom(address,address,uint256)": "23b872dd",
        "transferOwnership(address)": "f2fde38b",
        "upgradeNft(address,uint256)": "e9cb499b"
    },
    "gasEstimates": {
        "creation": {
            "codeDepositCost": "2020800",
            "executionCost": "infinite",
            "totalCost": "infinite"
        },
        "external": {
            "_tokenIds()": "2365",
            "approve(address,uint256)": "infinite",
            "balanceOf(address)": "2678",
            "baseUriString()": "infinite",
            "getApproved(uint256)": "4822",
            "getNftData(uint256)": "6888",
            "isApprovedForAll(address,address)": "infinite",
            "levelUpCost()": "2405",
            "mintCost(uint16)": "2618",
            "mintNft(address,uint16)": "infinite",
            "name()": "infinite",
            "owner()": "2377",
            "ownerOf(uint256)": "2623",
            "renounceOwnership()": "28228",
            "safeTransferFrom(address,address,uint256)": "infinite",
            "safeTransferFrom(address,address,uint256,bytes)": "infinite",
            "setApprovalForAll(address,bool)": "26798",
            "setBaseUriString(string)": "infinite",
            "setLevelUpCost(uint256)": "24509",
            "setMintCost(uint256,uint256,uint256)": "68832",
            "setTokenAddress(address)": "26757",
            "supportsInterface(bytes4)": "infinite",
            "symbol()": "infinite",
            "tokenAddress()": "2427",
            "tokenByIndex(uint256)": "6827",
            "tokenOfOwnerByIndex(address,uint256)": "4998",
            "tokenURI(uint256)": "infinite",
            "tokensAttributes(uint256)": "6948",
            "totalSupply()": "2349",
            "transferFrom(address,address,uint256)": "infinite",
            "transferOwnership(address)": "28400",
            "upgradeNft(address,uint256)": "infinite"
        },
        "internal": {
            "_baseURI()": "infinite",
            "_beforeTokenTransfer(address,address,uint256)": "infinite",
            "_burn(uint256)": "infinite",
            "_getMonkeyType(uint256,uint16)": "infinite",
            "_setTokenAttributes(uint256,uint16)": "infinite",
            "randomElement(uint256)": "infinite"
        }
    }
}