{
    "contractName": "CryptoMonkeysGameSimple",
    "abi": [
        {
            "inputs": [
                {
                    "internalType": "address",
                    "name": "_ERC20TokenSourceWallet",
                    "type": "address"
                },
                {
                    "internalType": "address",
                    "name": "_tokenAddress",
                    "type": "address"
                },
                {
                    "internalType": "address",
                    "name": "_nftAddress",
                    "type": "address"
                },
                {
                    "internalType": "uint256",
                    "name": "_waitPeriod",
                    "type": "uint256"
                },
                {
                    "internalType": "uint256[11]",
                    "name": "_baseSalary",
                    "type": "uint256[11]"
                },
                {
                    "internalType": "uint256",
                    "name": "_lvl2Multiplier",
                    "type": "uint256"
                }
            ],
            "stateMutability": "nonpayable",
            "type": "constructor"
        },
        {
            "anonymous": false,
            "inputs": [
                {
                    "indexed": true,
                    "internalType": "address",
                    "name": "previousOwner",
                    "type": "address"
                },
                {
                    "indexed": true,
                    "internalType": "address",
                    "name": "newOwner",
                    "type": "address"
                }
            ],
            "name": "OwnershipTransferred",
            "type": "event"
        },
        {
            "inputs": [],
            "name": "ERC20TokenSourceWallet",
            "outputs": [
                {
                    "internalType": "address",
                    "name": "",
                    "type": "address"
                }
            ],
            "stateMutability": "view",
            "type": "function"
        },
        {
            "inputs": [
                {
                    "internalType": "uint256",
                    "name": "_tokenId",
                    "type": "uint256"
                }
            ],
            "name": "baseMining",
            "outputs": [],
            "stateMutability": "nonpayable",
            "type": "function"
        },
        {
            "inputs": [
                {
                    "internalType": "uint256",
                    "name": "",
                    "type": "uint256"
                }
            ],
            "name": "baseSalary",
            "outputs": [
                {
                    "internalType": "uint256",
                    "name": "",
                    "type": "uint256"
                }
            ],
            "stateMutability": "view",
            "type": "function"
        },
        {
            "inputs": [
                {
                    "internalType": "uint256",
                    "name": "_tokenId",
                    "type": "uint256"
                }
            ],
            "name": "getAvailableBalance",
            "outputs": [
                {
                    "internalType": "uint256",
                    "name": "",
                    "type": "uint256"
                }
            ],
            "stateMutability": "view",
            "type": "function"
        },
        {
            "inputs": [
                {
                    "internalType": "uint256",
                    "name": "_tokenId",
                    "type": "uint256"
                }
            ],
            "name": "getLastMiningMapping",
            "outputs": [
                {
                    "internalType": "uint256",
                    "name": "",
                    "type": "uint256"
                }
            ],
            "stateMutability": "view",
            "type": "function"
        },
        {
            "inputs": [],
            "name": "getNow",
            "outputs": [
                {
                    "internalType": "uint256",
                    "name": "",
                    "type": "uint256"
                }
            ],
            "stateMutability": "view",
            "type": "function"
        },
        {
            "inputs": [
                {
                    "internalType": "uint256",
                    "name": "",
                    "type": "uint256"
                }
            ],
            "name": "lastMiningMapping",
            "outputs": [
                {
                    "internalType": "uint256",
                    "name": "",
                    "type": "uint256"
                }
            ],
            "stateMutability": "view",
            "type": "function"
        },
        {
            "inputs": [],
            "name": "lvl2Multiplier",
            "outputs": [
                {
                    "internalType": "uint256",
                    "name": "",
                    "type": "uint256"
                }
            ],
            "stateMutability": "view",
            "type": "function"
        },
        {
            "inputs": [],
            "name": "nftAddress",
            "outputs": [
                {
                    "internalType": "address",
                    "name": "",
                    "type": "address"
                }
            ],
            "stateMutability": "view",
            "type": "function"
        },
        {
            "inputs": [],
            "name": "nftContract",
            "outputs": [
                {
                    "internalType": "contract CryptoMonkeyChars",
                    "name": "",
                    "type": "address"
                }
            ],
            "stateMutability": "view",
            "type": "function"
        },
        {
            "inputs": [],
            "name": "owner",
            "outputs": [
                {
                    "internalType": "address",
                    "name": "",
                    "type": "address"
                }
            ],
            "stateMutability": "view",
            "type": "function"
        },
        {
            "inputs": [],
            "name": "renounceOwnership",
            "outputs": [],
            "stateMutability": "nonpayable",
            "type": "function"
        },
        {
            "inputs": [
                {
                    "internalType": "address",
                    "name": "_address",
                    "type": "address"
                }
            ],
            "name": "setERC20TokenSourceWallet",
            "outputs": [],
            "stateMutability": "nonpayable",
            "type": "function"
        },
        {
            "inputs": [
                {
                    "internalType": "address",
                    "name": "_address",
                    "type": "address"
                }
            ],
            "name": "setNftAddress",
            "outputs": [],
            "stateMutability": "nonpayable",
            "type": "function"
        },
        {
            "inputs": [
                {
                    "internalType": "uint256[14]",
                    "name": "_baseSalary",
                    "type": "uint256[14]"
                },
                {
                    "internalType": "uint256",
                    "name": "_lvl2Multiplier",
                    "type": "uint256"
                }
            ],
            "name": "setSalaries",
            "outputs": [],
            "stateMutability": "nonpayable",
            "type": "function"
        },
        {
            "inputs": [
                {
                    "internalType": "address",
                    "name": "_address",
                    "type": "address"
                }
            ],
            "name": "setTokenAddress",
            "outputs": [],
            "stateMutability": "nonpayable",
            "type": "function"
        },
        {
            "inputs": [
                {
                    "internalType": "uint256",
                    "name": "_waitPeriod",
                    "type": "uint256"
                }
            ],
            "name": "setWaitPeriod",
            "outputs": [],
            "stateMutability": "nonpayable",
            "type": "function"
        },
        {
            "inputs": [],
            "name": "tokenAddress",
            "outputs": [
                {
                    "internalType": "address",
                    "name": "",
                    "type": "address"
                }
            ],
            "stateMutability": "view",
            "type": "function"
        },
        {
            "inputs": [],
            "name": "tokenContract",
            "outputs": [
                {
                    "internalType": "contract ERC20Burnable",
                    "name": "",
                    "type": "address"
                }
            ],
            "stateMutability": "view",
            "type": "function"
        },
        {
            "inputs": [
                {
                    "internalType": "address",
                    "name": "newOwner",
                    "type": "address"
                }
            ],
            "name": "transferOwnership",
            "outputs": [],
            "stateMutability": "nonpayable",
            "type": "function"
        },
        {
            "inputs": [],
            "name": "waitPeriod",
            "outputs": [
                {
                    "internalType": "uint256",
                    "name": "",
                    "type": "uint256"
                }
            ],
            "stateMutability": "view",
            "type": "function"
        },
        {
            "inputs": [
                {
                    "internalType": "uint256",
                    "name": "_tokenId",
                    "type": "uint256"
                }
            ],
            "name": "withdrawalUserBalance",
            "outputs": [],
            "stateMutability": "nonpayable",
            "type": "function"
        }
    ],
    "bytecode": "60806040523480156200001157600080fd5b506040516200139438038062001394833981016040819052620000349162000318565b6200003f3362000295565b600180546001600160a01b03199081166001600160a01b0398891617825560028054821697891697881781556003805483169790991696871789556006958655600480548316909817885560058054909216909617815583516000928352600860208181527fad67d757c34507f157cacfa2e3153e9f260a2244f30428821be7be64587ac55f92909255908501519683527f6add646517a5b0f6793cd5891b7937d28a5b2981a5d88ebc7cd776088fea90419690965560408401519782527f625b35f5e76f098dd7c3a05b10e2e5e78a4a01228d60c3b143426cdf36d264559790975560608301519581527f9321edea6e3be4df59a344b401fab4f888b556fda1f954244cff9204bad624b89590955560808201519585527f91238f30f286c9a1c6e901c4eda3b214c381c846e3dbe48df95c21488e8e1fdb9590955560a08101519184527f13acf3fc7bed94759963f076d5d3443d88732026bffc8253bdf4a6e65f21ecc59190915560c0810151600784527f24cd397636bedc6cf9b490d0edd57c769c19b367fb7d5c2344ae1ddc7d21c1445560e08101519183527fe4c2e8be66af8dd2d277000f4f830a10546f8b14e45cd850b875c98ba0f0d2cd9190915561010081015160098084527f82c9e868e45873bb5a4f47c09e14a12f6a6314e13aabd611e4374762bb4e8b3691909155610120820151600a84527f586689db7536874b78a6eac0f58556a56a106985743f7c16a699b27bb02f88bd5561014090910151600b9092527fcb250a1a60f48f70f08c912424f39071fd9a8b7099a72dffd251fce0294f37499190915555620003e9565b600080546001600160a01b038381166001600160a01b0319831681178455604051919092169283917f8be0079c531659141344cd1fd0a4f28419497f9722a3daafe3b4186f6b6457e09190a35050565b80516001600160a01b0381168114620002fd57600080fd5b919050565b634e487b7160e01b600052604160045260246000fd5b60008060008060008061020087890312156200033357600080fd5b6200033e87620002e5565b955060206200034f818901620002e5565b95506200035f60408901620002e5565b94506060880151935088609f8901126200037857600080fd5b60405161016081016001600160401b03811182821017156200039e576200039e62000302565b604052806101e08a018b811115620003b557600080fd5b60808b015b81811015620003d35780518352918401918401620003ba565b5082955080519450505050509295509295509295565b610f9b80620003f96000396000f3fe608060405234801561001057600080fd5b50600436106101425760003560e01c80638e26c09d116100b8578063bbe4fd501161007c578063bbe4fd5014610290578063c3d955a214610296578063d01a149a146102a9578063d1ed385e146102c9578063d56d229d146102e9578063f2fde38b146102fc57600080fd5b80638e26c09d146102455780639d76ea581461024e578063aabef0db14610261578063b0facbc114610274578063b5c715e21461028757600080fd5b806355a373d61161010a57806355a373d6146101c55780635777c8e5146101d85780635bf8633a14610206578063715018a6146102195780637fe25ae7146102215780638da5cb5b1461023457600080fd5b80630b102d1a1461014757806326a4dd601461015c57806326a4e8d21461016f57806347662b3814610182578063532ed0e214610195575b600080fd5b61015a610155366004610cb9565b61030f565b005b61015a61016a366004610cb9565b61036e565b61015a61017d366004610cb9565b6103ba565b61015a610190366004610cdd565b610410565b6001546101a8906001600160a01b031681565b6040516001600160a01b0390911681526020015b60405180910390f35b6004546101a8906001600160a01b031681565b6101f86101e6366004610cdd565b60076020526000908152604090205481565b6040519081526020016101bc565b6003546101a8906001600160a01b031681565b61015a61043f565b61015a61022f366004610cdd565b610475565b6000546001600160a01b03166101a8565b6101f860065481565b6002546101a8906001600160a01b031681565b6101f861026f366004610cdd565b6105a7565b61015a610282366004610d0c565b6106cb565b6101f860095481565b426101f8565b61015a6102a4366004610cdd565b61096a565b6101f86102b7366004610cdd565b60009081526007602052604090205490565b6101f86102d7366004610cdd565b60086020526000908152604090205481565b6005546101a8906001600160a01b031681565b61015a61030a366004610cb9565b610bb9565b6000546001600160a01b031633146103425760405162461bcd60e51b815260040161033990610d8f565b60405180910390fd5b600380546001600160a01b039092166001600160a01b0319928316811790915560058054909216179055565b6000546001600160a01b031633146103985760405162461bcd60e51b815260040161033990610d8f565b600180546001600160a01b0319166001600160a01b0392909216919091179055565b6000546001600160a01b031633146103e45760405162461bcd60e51b815260040161033990610d8f565b600280546001600160a01b039092166001600160a01b0319928316811790915560048054909216179055565b6000546001600160a01b0316331461043a5760405162461bcd60e51b815260040161033990610d8f565b600655565b6000546001600160a01b031633146104695760405162461bcd60e51b815260040161033990610d8f565b6104736000610c54565b565b600081815260076020526040902054156105015760405162461bcd60e51b815260206004820152604160248201527f43727970746f4d6f6e6b65797347616d653a20547279696e6720746f2073746160448201527f7274206661726d696e67207769746820616c72656164792075736564206368616064820152603960f91b608482015260a401610339565b6005546040516331a9108f60e11b81526004810183905233916001600160a01b031690636352211e90602401602060405180830381865afa15801561054a573d6000803e3d6000fd5b505050506040513d601f19601f8201168201806040525081019061056e9190610dc4565b6001600160a01b0316146105945760405162461bcd60e51b815260040161033990610de1565b4260009182526007602052604090912055565b600554604051635fceba1d60e11b815260048101839052600091829182916001600160a01b03169063bf9d743a9060240160a060405180830381865afa1580156105f5573d6000803e3d6000fd5b505050506040513d601f19601f820116820180604052508101906106199190610e73565b5050509150915060008160ff16600214156106555760095460ff841660009081526008602052604090205461064e9190610ef2565b905061066a565b5060ff82166000908152600860205260409020545b600085815260076020526040812054610685575060006106a1565b60008681526007602052604090205461069e9042610f11565b90505b6000600654826106b19190610f28565b905060006106bf8483610ef2565b98975050505050505050565b6000546001600160a01b031633146106f55760405162461bcd60e51b815260040161033990610d8f565b815160016000908152600860208181527fad67d757c34507f157cacfa2e3153e9f260a2244f30428821be7be64587ac55f9390935591840151600282527f6add646517a5b0f6793cd5891b7937d28a5b2981a5d88ebc7cd776088fea9041556040840151600382527f625b35f5e76f098dd7c3a05b10e2e5e78a4a01228d60c3b143426cdf36d26455556060840151600482527f9321edea6e3be4df59a344b401fab4f888b556fda1f954244cff9204bad624b8556080840151600582527f91238f30f286c9a1c6e901c4eda3b214c381c846e3dbe48df95c21488e8e1fdb5560a0840151600682527f13acf3fc7bed94759963f076d5d3443d88732026bffc8253bdf4a6e65f21ecc55560c0840151600782527f24cd397636bedc6cf9b490d0edd57c769c19b367fb7d5c2344ae1ddc7d21c1445560e08401519181527fe4c2e8be66af8dd2d277000f4f830a10546f8b14e45cd850b875c98ba0f0d2cd9190915561010083015160098083527f82c9e868e45873bb5a4f47c09e14a12f6a6314e13aabd611e4374762bb4e8b3691909155610120840151600a83527f586689db7536874b78a6eac0f58556a56a106985743f7c16a699b27bb02f88bd55610140840151600b83527fcb250a1a60f48f70f08c912424f39071fd9a8b7099a72dffd251fce0294f374955610160840151600c83527faba08fc86a199da17c4b45fa0fb586714474d27e5e1f0220658b6275561b2e1855610180840151600d83527f9006e1a1959cda25aa0dba7b7a958efb843c4c8cb81a2c2fb8637a074e0818f2556101a090930151600e9091527fb6457486547dfd0925a66a479476c3a3e54935ea6192a908abe6bd58ec247b41559055565b6005546040516331a9108f60e11b81526004810183905233916001600160a01b031690636352211e90602401602060405180830381865afa1580156109b3573d6000803e3d6000fd5b505050506040513d601f19601f820116820180604052508101906109d79190610dc4565b6001600160a01b0316146109fd5760405162461bcd60e51b815260040161033990610de1565b600554604051635fceba1d60e11b81526004810183905260009182916001600160a01b039091169063bf9d743a9060240160a060405180830381865afa158015610a4b573d6000803e3d6000fd5b505050506040513d601f19601f82011682018060405250810190610a6f9190610e73565b5050509150915060008160ff1660021415610aab5760095460ff8416600090815260086020526040902054610aa49190610ef2565b9050610ac0565b5060ff82166000908152600860205260409020545b600084815260076020526040812054610adb57506000610af7565b600085815260076020526040902054610af49042610f11565b90505b600060065482610b079190610f28565b90506000610b158483610ef2565b90504260008881526007602052604090819020919091556004805460015492516323b872dd60e01b81526001600160a01b03938416928101929092523360248301526044820184905291909116906323b872dd906064016020604051808303816000875af1158015610b8b573d6000803e3d6000fd5b505050506040513d601f19601f82011682018060405250810190610baf9190610f4a565b5050505050505050565b6000546001600160a01b03163314610be35760405162461bcd60e51b815260040161033990610d8f565b6001600160a01b038116610c485760405162461bcd60e51b815260206004820152602660248201527f4f776e61626c653a206e6577206f776e657220697320746865207a65726f206160448201526564647265737360d01b6064820152608401610339565b610c5181610c54565b50565b600080546001600160a01b038381166001600160a01b0319831681178455604051919092169283917f8be0079c531659141344cd1fd0a4f28419497f9722a3daafe3b4186f6b6457e09190a35050565b6001600160a01b0381168114610c5157600080fd5b600060208284031215610ccb57600080fd5b8135610cd681610ca4565b9392505050565b600060208284031215610cef57600080fd5b5035919050565b634e487b7160e01b600052604160045260246000fd5b6000806101e08385031215610d2057600080fd5b83601f840112610d2f57600080fd5b6040516101c080820182811067ffffffffffffffff82111715610d5457610d54610cf6565b60405284018186821115610d6757600080fd5b855b82811015610d81578035825260209182019101610d69565b509196903595509350505050565b6020808252818101527f4f776e61626c653a2063616c6c6572206973206e6f7420746865206f776e6572604082015260600190565b600060208284031215610dd657600080fd5b8151610cd681610ca4565b60208082526046908201527f43727970746f4d6f6e6b65797347616d653a20747279696e6720746f2075736560408201527f206e667420746861742062656c6f6e677320746f20646966666572656e74206160608201526564647265737360d01b608082015260a00190565b805160ff81168114610e5e57600080fd5b919050565b80518015158114610e5e57600080fd5b600080600080600060a08688031215610e8b57600080fd5b610e9486610e4d565b9450610ea260208701610e4d565b935060408601519250610eb760608701610e63565b9150608086015161ffff81168114610ece57600080fd5b809150509295509295909350565b634e487b7160e01b600052601160045260246000fd5b6000816000190483118215151615610f0c57610f0c610edc565b500290565b600082821015610f2357610f23610edc565b500390565b600082610f4557634e487b7160e01b600052601260045260246000fd5b500490565b600060208284031215610f5c57600080fd5b610cd682610e6356fea26469706673582212201fdf184c5d5f947df0153bb4b9d46ceb5170a384b00060e8a2d64b3233e36cc964736f6c634300080b0033",
    "sourcePath": "c:/Users/Joao/Documents/cryptomonkeysgame/crypto_game_boilerplate/contracts/game/CryptoMonkeysGameSimple.sol",
    "compiler": {
        "name": "solc",
        "version": "0.8.11+commit.d7f03943"
    },
    "functionHashes": {
        "ERC20TokenSourceWallet()": "532ed0e2",
        "baseMining(uint256)": "7fe25ae7",
        "baseSalary(uint256)": "d1ed385e",
        "getAvailableBalance(uint256)": "aabef0db",
        "getLastMiningMapping(uint256)": "d01a149a",
        "getNow()": "bbe4fd50",
        "lastMiningMapping(uint256)": "5777c8e5",
        "lvl2Multiplier()": "b5c715e2",
        "nftAddress()": "5bf8633a",
        "nftContract()": "d56d229d",
        "owner()": "8da5cb5b",
        "renounceOwnership()": "715018a6",
        "setERC20TokenSourceWallet(address)": "26a4dd60",
        "setNftAddress(address)": "0b102d1a",
        "setSalaries(uint256[14],uint256)": "b0facbc1",
        "setTokenAddress(address)": "26a4e8d2",
        "setWaitPeriod(uint256)": "47662b38",
        "tokenAddress()": "9d76ea58",
        "tokenContract()": "55a373d6",
        "transferOwnership(address)": "f2fde38b",
        "waitPeriod()": "8e26c09d",
        "withdrawalUserBalance(uint256)": "c3d955a2"
    },
    "gasEstimates": {
        "creation": {
            "codeDepositCost": "799000",
            "executionCost": "infinite",
            "totalCost": "infinite"
        },
        "external": {
            "ERC20TokenSourceWallet()": "2438",
            "baseMining(uint256)": "infinite",
            "baseSalary(uint256)": "2526",
            "getAvailableBalance(uint256)": "infinite",
            "getLastMiningMapping(uint256)": "2504",
            "getNow()": "213",
            "lastMiningMapping(uint256)": "2483",
            "lvl2Multiplier()": "2406",
            "nftAddress()": "2393",
            "nftContract()": "2436",
            "owner()": "2453",
            "renounceOwnership()": "28203",
            "setERC20TokenSourceWallet(address)": "26751",
            "setNftAddress(address)": "50950",
            "setSalaries(uint256[14],uint256)": "infinite",
            "setTokenAddress(address)": "50994",
            "setWaitPeriod(uint256)": "24554",
            "tokenAddress()": "2371",
            "tokenContract()": "2349",
            "transferOwnership(address)": "infinite",
            "waitPeriod()": "2318",
            "withdrawalUserBalance(uint256)": "infinite"
        },
        "internal": {
            "setLastMiningMapping(uint256)": "infinite"
        }
    }
}