{
    "contractName": "CryptoMonkeysGame",
    "abi": [
        {
            "inputs": [
                {
                    "internalType": "address",
                    "name": "_ERC20TokenSourceWallet",
                    "type": "address"
                },
                {
                    "internalType": "address",
                    "name": "_tokenAddress",
                    "type": "address"
                },
                {
                    "internalType": "address",
                    "name": "_nftAddress",
                    "type": "address"
                },
                {
                    "internalType": "uint256",
                    "name": "_waitPeriod",
                    "type": "uint256"
                },
                {
                    "internalType": "uint256[11]",
                    "name": "_baseSalary",
                    "type": "uint256[11]"
                },
                {
                    "internalType": "uint256",
                    "name": "_lvl2Multiplier",
                    "type": "uint256"
                },
                {
                    "internalType": "uint256",
                    "name": "_withdrawalTime",
                    "type": "uint256"
                },
                {
                    "internalType": "uint256",
                    "name": "_withdrawalLoss",
                    "type": "uint256"
                }
            ],
            "stateMutability": "nonpayable",
            "type": "constructor"
        },
        {
            "anonymous": false,
            "inputs": [
                {
                    "indexed": true,
                    "internalType": "address",
                    "name": "previousOwner",
                    "type": "address"
                },
                {
                    "indexed": true,
                    "internalType": "address",
                    "name": "newOwner",
                    "type": "address"
                }
            ],
            "name": "OwnershipTransferred",
            "type": "event"
        },
        {
            "inputs": [],
            "name": "ERC20TokenSourceWallet",
            "outputs": [
                {
                    "internalType": "address",
                    "name": "",
                    "type": "address"
                }
            ],
            "stateMutability": "view",
            "type": "function"
        },
        {
            "inputs": [
                {
                    "internalType": "uint256",
                    "name": "_tokenId",
                    "type": "uint256"
                }
            ],
            "name": "baseMining",
            "outputs": [],
            "stateMutability": "nonpayable",
            "type": "function"
        },
        {
            "inputs": [
                {
                    "internalType": "uint256",
                    "name": "",
                    "type": "uint256"
                }
            ],
            "name": "baseSalary",
            "outputs": [
                {
                    "internalType": "uint256",
                    "name": "",
                    "type": "uint256"
                }
            ],
            "stateMutability": "view",
            "type": "function"
        },
        {
            "inputs": [
                {
                    "internalType": "address",
                    "name": "_address",
                    "type": "address"
                }
            ],
            "name": "getAvailableBalance",
            "outputs": [
                {
                    "internalType": "uint256",
                    "name": "",
                    "type": "uint256"
                }
            ],
            "stateMutability": "view",
            "type": "function"
        },
        {
            "inputs": [
                {
                    "internalType": "uint256",
                    "name": "_tokenId",
                    "type": "uint256"
                }
            ],
            "name": "getLastMiningMapping",
            "outputs": [
                {
                    "internalType": "uint256",
                    "name": "",
                    "type": "uint256"
                }
            ],
            "stateMutability": "view",
            "type": "function"
        },
        {
            "inputs": [
                {
                    "internalType": "uint256",
                    "name": "_tokenId",
                    "type": "uint256"
                }
            ],
            "name": "getLastResult",
            "outputs": [
                {
                    "internalType": "uint256",
                    "name": "",
                    "type": "uint256"
                }
            ],
            "stateMutability": "view",
            "type": "function"
        },
        {
            "inputs": [],
            "name": "getNow",
            "outputs": [
                {
                    "internalType": "uint256",
                    "name": "",
                    "type": "uint256"
                }
            ],
            "stateMutability": "view",
            "type": "function"
        },
        {
            "inputs": [
                {
                    "internalType": "uint256",
                    "name": "",
                    "type": "uint256"
                }
            ],
            "name": "lastMiningMapping",
            "outputs": [
                {
                    "internalType": "uint256",
                    "name": "",
                    "type": "uint256"
                }
            ],
            "stateMutability": "view",
            "type": "function"
        },
        {
            "inputs": [
                {
                    "internalType": "uint256",
                    "name": "",
                    "type": "uint256"
                }
            ],
            "name": "lastResultMapping",
            "outputs": [
                {
                    "internalType": "uint256",
                    "name": "",
                    "type": "uint256"
                }
            ],
            "stateMutability": "view",
            "type": "function"
        },
        {
            "inputs": [
                {
                    "internalType": "address",
                    "name": "",
                    "type": "address"
                }
            ],
            "name": "lastWithdrawal",
            "outputs": [
                {
                    "internalType": "uint256",
                    "name": "",
                    "type": "uint256"
                }
            ],
            "stateMutability": "view",
            "type": "function"
        },
        {
            "inputs": [],
            "name": "lvl2Multiplier",
            "outputs": [
                {
                    "internalType": "uint256",
                    "name": "",
                    "type": "uint256"
                }
            ],
            "stateMutability": "view",
            "type": "function"
        },
        {
            "inputs": [],
            "name": "nftAddress",
            "outputs": [
                {
                    "internalType": "address",
                    "name": "",
                    "type": "address"
                }
            ],
            "stateMutability": "view",
            "type": "function"
        },
        {
            "inputs": [],
            "name": "nftContract",
            "outputs": [
                {
                    "internalType": "contract CryptoMonkeyChars",
                    "name": "",
                    "type": "address"
                }
            ],
            "stateMutability": "view",
            "type": "function"
        },
        {
            "inputs": [],
            "name": "owner",
            "outputs": [
                {
                    "internalType": "address",
                    "name": "",
                    "type": "address"
                }
            ],
            "stateMutability": "view",
            "type": "function"
        },
        {
            "inputs": [],
            "name": "renounceOwnership",
            "outputs": [],
            "stateMutability": "nonpayable",
            "type": "function"
        },
        {
            "inputs": [
                {
                    "internalType": "address",
                    "name": "_address",
                    "type": "address"
                }
            ],
            "name": "setERC20TokenSourceWallet",
            "outputs": [],
            "stateMutability": "nonpayable",
            "type": "function"
        },
        {
            "inputs": [
                {
                    "internalType": "address",
                    "name": "_address",
                    "type": "address"
                }
            ],
            "name": "setNftAddress",
            "outputs": [],
            "stateMutability": "nonpayable",
            "type": "function"
        },
        {
            "inputs": [
                {
                    "internalType": "uint256[14]",
                    "name": "_baseSalary",
                    "type": "uint256[14]"
                },
                {
                    "internalType": "uint256",
                    "name": "_lvl2Multiplier",
                    "type": "uint256"
                }
            ],
            "name": "setSalaries",
            "outputs": [],
            "stateMutability": "nonpayable",
            "type": "function"
        },
        {
            "inputs": [
                {
                    "internalType": "address",
                    "name": "_address",
                    "type": "address"
                }
            ],
            "name": "setTokenAddress",
            "outputs": [],
            "stateMutability": "nonpayable",
            "type": "function"
        },
        {
            "inputs": [
                {
                    "internalType": "uint256",
                    "name": "_waitPeriod",
                    "type": "uint256"
                }
            ],
            "name": "setWaitPeriod",
            "outputs": [],
            "stateMutability": "nonpayable",
            "type": "function"
        },
        {
            "inputs": [
                {
                    "internalType": "uint256",
                    "name": "_withdrawalTime",
                    "type": "uint256"
                },
                {
                    "internalType": "uint256",
                    "name": "_withdrawalLoss",
                    "type": "uint256"
                }
            ],
            "name": "setWithdrawal",
            "outputs": [],
            "stateMutability": "nonpayable",
            "type": "function"
        },
        {
            "inputs": [],
            "name": "tokenAddress",
            "outputs": [
                {
                    "internalType": "address",
                    "name": "",
                    "type": "address"
                }
            ],
            "stateMutability": "view",
            "type": "function"
        },
        {
            "inputs": [],
            "name": "tokenContract",
            "outputs": [
                {
                    "internalType": "contract ERC20Burnable",
                    "name": "",
                    "type": "address"
                }
            ],
            "stateMutability": "view",
            "type": "function"
        },
        {
            "inputs": [
                {
                    "internalType": "address",
                    "name": "newOwner",
                    "type": "address"
                }
            ],
            "name": "transferOwnership",
            "outputs": [],
            "stateMutability": "nonpayable",
            "type": "function"
        },
        {
            "inputs": [
                {
                    "internalType": "address",
                    "name": "",
                    "type": "address"
                }
            ],
            "name": "userBalance",
            "outputs": [
                {
                    "internalType": "uint256",
                    "name": "",
                    "type": "uint256"
                }
            ],
            "stateMutability": "view",
            "type": "function"
        },
        {
            "inputs": [],
            "name": "waitPeriod",
            "outputs": [
                {
                    "internalType": "uint256",
                    "name": "",
                    "type": "uint256"
                }
            ],
            "stateMutability": "view",
            "type": "function"
        },
        {
            "inputs": [],
            "name": "withdrawalLoss",
            "outputs": [
                {
                    "internalType": "uint256",
                    "name": "",
                    "type": "uint256"
                }
            ],
            "stateMutability": "view",
            "type": "function"
        },
        {
            "inputs": [],
            "name": "withdrawalTime",
            "outputs": [
                {
                    "internalType": "uint256",
                    "name": "",
                    "type": "uint256"
                }
            ],
            "stateMutability": "view",
            "type": "function"
        },
        {
            "inputs": [],
            "name": "withdrawalUserBalance",
            "outputs": [],
            "stateMutability": "nonpayable",
            "type": "function"
        }
    ],
    "bytecode": "60806040523480156200001157600080fd5b5060405162001677380380620016778339810160408190526200003491620003c7565b6200003f3362000344565b600180546001600160a01b038a81166001600160a01b0319928316178355600280548b83169084168117825560038054938c169385168417815560068b8155600480548716909317835560058054909616909417855589516000878152600960208181527f92e85d02570a8092d09a6e3a57665bc3815a2699a4074001bf1ccabf660f5a3693909355918c01519481527f6cde3cea4b3a3fb2488b2808bae7556f4a405e50f65e1794383bc026131b13c39490945560408b01519184527fc575c31fea594a6eb97c8e9d3f9caee4c16218c6ef37e923234c0fe9014a61e79190915560608a01519183527f8dc18c4ccfd75f5c815b63770fa542fd953e8fef7e0e44bbdd4913470ce7e9cb9190915560808901519382527f74b05292d1d4b2b48b65261b07099d24244bcb069f138d9a6bfdcf776becac4c9390935560a08801519181527fbb6daa0c283751197dfdc76590680f9005e97d6f23870deb1164ab60b28b9f5f9190915560c0870151600782527fae6299332bcd708cd60e3a8defa55de28078a50a4cf2b3de3a546253240ff9e15560e0870151600882527fc7694af312c4f286114180fd0ba6a52461fcee8a381636770b19a343af92538a556101008701519181527f87e8a52529e8ece4ef759037313542a6429ff494a9fab9027fb79db90124eba691909155610120860151600a8083527f502e20e4e219e0c509d693958f17384c185f07a810a5d31c46c2be981e979c2591909155610140870151600b9092527f0d9cf2cd531699eed8dd34e40ff2884a14a698c4898184fba85194e6f6772d249190915584905581116200032e5760405162461bcd60e51b815260206004820152605560248201527f43727970746f4d6f6e6b65797347616d653a205f7769746864726177616c4c6f60448201527f7373206d757374206265203e20312028777269746520696e206162736f6c757460648201527f652c20666f72203730252c207772697465203730290000000000000000000000608482015260a40160405180910390fd5b600d91909155600e5550620004ab945050505050565b600080546001600160a01b038381166001600160a01b0319831681178455604051919092169283917f8be0079c531659141344cd1fd0a4f28419497f9722a3daafe3b4186f6b6457e09190a35050565b80516001600160a01b0381168114620003ac57600080fd5b919050565b634e487b7160e01b600052604160045260246000fd5b600080600080600080600080610240898b031215620003e557600080fd5b620003f08962000394565b9750602062000401818b0162000394565b97506200041160408b0162000394565b965060608a015195508a609f8b01126200042a57600080fd5b60405161016081016001600160401b0381118282101715620004505762000450620003b1565b604052806101e08c018d8111156200046757600080fd5b60808d015b818110156200048557805183529184019184016200046c565b50516102008d0151610220909d01519b9e9a9d50989b979a919991965090945050505050565b6111bc80620004bb6000396000f3fe608060405234801561001057600080fd5b50600436106101cf5760003560e01c8063715018a611610104578063b5c715e2116100a2578063d1ed385e11610071578063d1ed385e146103d0578063d56d229d146103f0578063ebe6c9ff14610403578063f2fde38b1461042357600080fd5b8063b5c715e214610381578063ba37a63d1461038a578063bbe4fd50146103aa578063d01a149a146103b057600080fd5b80638da5cb5b116100de5780638da5cb5b146103415780638e26c09d146103525780639d76ea581461035b578063b0facbc11461036e57600080fd5b8063715018a61461031d57806371bf85b7146103255780637fe25ae71461032e57600080fd5b8063389eb9f91161017157806355a373d61161014b57806355a373d6146102c45780635777c8e5146102d75780635bf8633a146102f75780636c24a76f1461030a57600080fd5b8063389eb9f91461027d57806347662b3814610286578063532ed0e21461029957600080fd5b8063240e4642116101ad578063240e46421461022f57806326837dfb1461023757806326a4dd601461025757806326a4e8d21461026a57600080fd5b80630103c92b146101d45780630b102d1a1461020757806315506ace1461021c575b600080fd5b6101f46101e2366004610ef0565b600b6020526000908152604090205481565b6040519081526020015b60405180910390f35b61021a610215366004610ef0565b610436565b005b61021a61022a366004610f14565b610495565b61021a61055e565b6101f4610245366004610f36565b60009081526008602052604090205490565b61021a610265366004610ef0565b610613565b61021a610278366004610ef0565b61065f565b6101f4600d5481565b61021a610294366004610f36565b6106b5565b6001546102ac906001600160a01b031681565b6040516001600160a01b0390911681526020016101fe565b6004546102ac906001600160a01b031681565b6101f46102e5366004610f36565b60076020526000908152604090205481565b6003546102ac906001600160a01b031681565b6101f4610318366004610ef0565b6106e4565b61021a6106f5565b6101f4600e5481565b61021a61033c366004610f36565b61072b565b6000546001600160a01b03166102ac565b6101f460065481565b6002546102ac906001600160a01b031681565b61021a61037c366004610f65565b610a39565b6101f4600a5481565b6101f4610398366004610f36565b60086020526000908152604090205481565b426101f4565b6101f46103be366004610f36565b60009081526007602052604090205490565b6101f46103de366004610f36565b60096020526000908152604090205481565b6005546102ac906001600160a01b031681565b6101f4610411366004610ef0565b600c6020526000908152604090205481565b61021a610431366004610ef0565b610cd8565b6000546001600160a01b031633146104695760405162461bcd60e51b815260040161046090610fe8565b60405180910390fd5b600380546001600160a01b039092166001600160a01b0319928316811790915560058054909216179055565b6000546001600160a01b031633146104bf5760405162461bcd60e51b815260040161046090610fe8565b600181116105535760405162461bcd60e51b815260206004820152605560248201527f43727970746f4d6f6e6b65797347616d653a205f7769746864726177616c4c6f60448201527f7373206d757374206265203e20312028777269746520696e206162736f6c7574606482015274652c20666f72203730252c2077726974652037302960581b608482015260a401610460565b600d91909155600e55565b600061056933610d73565b336000818152600b60209081526040808320839055600c909152908190204290556004805460015492516323b872dd60e01b81526001600160a01b039384169281019290925260248201939093526044810184905292935016906323b872dd906064016020604051808303816000875af11580156105eb573d6000803e3d6000fd5b505050506040513d601f19601f8201168201806040525081019061060f9190611032565b5050565b6000546001600160a01b0316331461063d5760405162461bcd60e51b815260040161046090610fe8565b600180546001600160a01b0319166001600160a01b0392909216919091179055565b6000546001600160a01b031633146106895760405162461bcd60e51b815260040161046090610fe8565b600280546001600160a01b039092166001600160a01b0319928316811790915560048054909216179055565b6000546001600160a01b031633146106df5760405162461bcd60e51b815260040161046090610fe8565b600655565b60006106ef82610d73565b92915050565b6000546001600160a01b0316331461071f5760405162461bcd60e51b815260040161046090610fe8565b6107296000610e2c565b565b6005546040516331a9108f60e11b815260048101839052829133916001600160a01b0390911690636352211e90602401602060405180830381865afa158015610778573d6000803e3d6000fd5b505050506040513d601f19601f8201168201806040525081019061079c919061104d565b6001600160a01b0316146108275760405162461bcd60e51b815260206004820152604660248201527f43727970746f4d6f6e6b65797347616d653a20747279696e6720746f2075736560448201527f206e667420746861742062656c6f6e677320746f20646966666572656e74206160648201526564647265737360d01b608482015260a401610460565b6006546000828152600760205260409020546108439190611080565b42116108a75760405162461bcd60e51b815260206004820152602d60248201527f43727970746f4d6f6e6b65797347616d653a2077616974506572696f64206e6f60448201526c1d081e595d08195b185c1cd959609a1b6064820152608401610460565b336000908152600c60205260409020546108ce57336000908152600c602052604090204290555b600554604051635fceba1d60e11b81526004810184905260009182916001600160a01b039091169063bf9d743a9060240160a060405180830381865afa15801561091c573d6000803e3d6000fd5b505050506040513d601f19601f8201168201806040525081019061094091906110a9565b505050915091506000606461095486610e7c565b61095e9190611128565b905060148110156109d8578160ff16600214156109d357600a5460ff841660009081526009602052604081205490916109969161113c565b336000908152600b60205260408120805492935083929091906109ba908490611080565b9091555050506000858152600860205260409020600290555b610a22565b60ff8316600090815260096020908152604080832054338452600b9092528220805491928392610a09908490611080565b9091555050506000858152600860205260409020600190555b505050600090815260076020526040902042905550565b6000546001600160a01b03163314610a635760405162461bcd60e51b815260040161046090610fe8565b815160016000908152600960208181527f92e85d02570a8092d09a6e3a57665bc3815a2699a4074001bf1ccabf660f5a369390935591840151600282527f6cde3cea4b3a3fb2488b2808bae7556f4a405e50f65e1794383bc026131b13c3556040840151600382527fc575c31fea594a6eb97c8e9d3f9caee4c16218c6ef37e923234c0fe9014a61e7556060840151600482527f8dc18c4ccfd75f5c815b63770fa542fd953e8fef7e0e44bbdd4913470ce7e9cb556080840151600582527f74b05292d1d4b2b48b65261b07099d24244bcb069f138d9a6bfdcf776becac4c5560a0840151600682527fbb6daa0c283751197dfdc76590680f9005e97d6f23870deb1164ab60b28b9f5f5560c0840151600782527fae6299332bcd708cd60e3a8defa55de28078a50a4cf2b3de3a546253240ff9e15560e0840151600882527fc7694af312c4f286114180fd0ba6a52461fcee8a381636770b19a343af92538a556101008401519181527f87e8a52529e8ece4ef759037313542a6429ff494a9fab9027fb79db90124eba691909155610120830151600a8083527f502e20e4e219e0c509d693958f17384c185f07a810a5d31c46c2be981e979c2591909155610140840151600b83527f0d9cf2cd531699eed8dd34e40ff2884a14a698c4898184fba85194e6f6772d2455610160840151600c83527fc7b54da85b38015141aec405fe9a03fa9e057971f48e8d0d8fc78485848a231055610180840151600d83527fdec90e20065e511a0428d28bf1b6b0d715e4b1cb865c1f0580815586cc6ebf9e556101a090930151600e9091527f14f5f4d78ba809fa1eb5eee80339f56eaa489b7b6b892ddb58602e51e8dad7ef559055565b6000546001600160a01b03163314610d025760405162461bcd60e51b815260040161046090610fe8565b6001600160a01b038116610d675760405162461bcd60e51b815260206004820152602660248201527f4f776e61626c653a206e6577206f776e657220697320746865207a65726f206160448201526564647265737360d01b6064820152608401610460565b610d7081610e2c565b50565b6001600160a01b0381166000908152600b6020908152604080832054600c9092528220548290610da3904261115b565b90506000600d54821015610e215760006064600e546064610dc4919061115b565b610dce908661113c565b610dd89190611172565b90506000600d546064610deb919061113c565b600e54610df8868861113c565b610e02919061113c565b610e0c9190611172565b9050610e188183611080565b92505050610e24565b50815b949350505050565b600080546001600160a01b038381166001600160a01b0319831681178455604051919092169283917f8be0079c531659141344cd1fd0a4f28419497f9722a3daafe3b4186f6b6457e09190a35050565b600044423384604051602001610ebd9493929190938452602084019290925260601b6bffffffffffffffffffffffff19166040830152605482015260740190565b60408051601f19818403018152919052805160209091012092915050565b6001600160a01b0381168114610d7057600080fd5b600060208284031215610f0257600080fd5b8135610f0d81610edb565b9392505050565b60008060408385031215610f2757600080fd5b50508035926020909101359150565b600060208284031215610f4857600080fd5b5035919050565b634e487b7160e01b600052604160045260246000fd5b6000806101e08385031215610f7957600080fd5b83601f840112610f8857600080fd5b6040516101c080820182811067ffffffffffffffff82111715610fad57610fad610f4f565b60405284018186821115610fc057600080fd5b855b82811015610fda578035825260209182019101610fc2565b509196903595509350505050565b6020808252818101527f4f776e61626c653a2063616c6c6572206973206e6f7420746865206f776e6572604082015260600190565b8051801515811461102d57600080fd5b919050565b60006020828403121561104457600080fd5b610f0d8261101d565b60006020828403121561105f57600080fd5b8151610f0d81610edb565b634e487b7160e01b600052601160045260246000fd5b600082198211156110935761109361106a565b500190565b805160ff8116811461102d57600080fd5b600080600080600060a086880312156110c157600080fd5b6110ca86611098565b94506110d860208701611098565b9350604086015192506110ed6060870161101d565b9150608086015161ffff8116811461110457600080fd5b809150509295509295909350565b634e487b7160e01b600052601260045260246000fd5b60008261113757611137611112565b500690565b60008160001904831182151516156111565761115661106a565b500290565b60008282101561116d5761116d61106a565b500390565b60008261118157611181611112565b50049056fea2646970667358221220bb817990c94de2bddd17d024b70106a2cb49551503ab2e025cb7cbff14cb1ff964736f6c634300080b0033",
    "sourcePath": "c:/Users/Joao/Documents/cryptomonkeysgame/crypto_game_boilerplate/contracts/game/CryptoMonkeysGame.sol",
    "compiler": {
        "name": "solc",
        "version": "0.8.11+commit.d7f03943"
    },
    "functionHashes": {
        "ERC20TokenSourceWallet()": "532ed0e2",
        "baseMining(uint256)": "7fe25ae7",
        "baseSalary(uint256)": "d1ed385e",
        "getAvailableBalance(address)": "6c24a76f",
        "getLastMiningMapping(uint256)": "d01a149a",
        "getLastResult(uint256)": "26837dfb",
        "getNow()": "bbe4fd50",
        "lastMiningMapping(uint256)": "5777c8e5",
        "lastResultMapping(uint256)": "ba37a63d",
        "lastWithdrawal(address)": "ebe6c9ff",
        "lvl2Multiplier()": "b5c715e2",
        "nftAddress()": "5bf8633a",
        "nftContract()": "d56d229d",
        "owner()": "8da5cb5b",
        "renounceOwnership()": "715018a6",
        "setERC20TokenSourceWallet(address)": "26a4dd60",
        "setNftAddress(address)": "0b102d1a",
        "setSalaries(uint256[14],uint256)": "b0facbc1",
        "setTokenAddress(address)": "26a4e8d2",
        "setWaitPeriod(uint256)": "47662b38",
        "setWithdrawal(uint256,uint256)": "15506ace",
        "tokenAddress()": "9d76ea58",
        "tokenContract()": "55a373d6",
        "transferOwnership(address)": "f2fde38b",
        "userBalance(address)": "0103c92b",
        "waitPeriod()": "8e26c09d",
        "withdrawalLoss()": "71bf85b7",
        "withdrawalTime()": "389eb9f9",
        "withdrawalUserBalance()": "240e4642"
    },
    "gasEstimates": {
        "creation": {
            "codeDepositCost": "908000",
            "executionCost": "infinite",
            "totalCost": "infinite"
        },
        "external": {
            "ERC20TokenSourceWallet()": "2427",
            "baseMining(uint256)": "infinite",
            "baseSalary(uint256)": "2471",
            "getAvailableBalance(address)": "infinite",
            "getLastMiningMapping(uint256)": "2538",
            "getLastResult(uint256)": "2495",
            "getNow()": "269",
            "lastMiningMapping(uint256)": "2494",
            "lastResultMapping(uint256)": "2494",
            "lastWithdrawal(address)": "2590",
            "lvl2Multiplier()": "2329",
            "nftAddress()": "2426",
            "nftContract()": "2403",
            "owner()": "2376",
            "renounceOwnership()": "28160",
            "setERC20TokenSourceWallet(address)": "26795",
            "setNftAddress(address)": "50995",
            "setSalaries(uint256[14],uint256)": "infinite",
            "setTokenAddress(address)": "51038",
            "setWaitPeriod(uint256)": "24532",
            "setWithdrawal(uint256,uint256)": "46713",
            "tokenAddress()": "2426",
            "tokenContract()": "2382",
            "transferOwnership(address)": "infinite",
            "userBalance(address)": "2549",
            "waitPeriod()": "2351",
            "withdrawalLoss()": "2352",
            "withdrawalTime()": "2330",
            "withdrawalUserBalance()": "infinite"
        },
        "internal": {
            "_getUserWithdrawalTerms(address)": "infinite",
            "randomElement(uint256)": "infinite",
            "setLastMiningMapping(uint256)": "infinite"
        }
    }
}