{
    "contractName": "PublicPresale",
    "abi": [
        {
            "inputs": [
                {
                    "internalType": "address",
                    "name": "_ERC20TokenSourceWallet",
                    "type": "address"
                },
                {
                    "internalType": "address",
                    "name": "_saleTokenAddress",
                    "type": "address"
                },
                {
                    "internalType": "uint256",
                    "name": "_tokensPerEth",
                    "type": "uint256"
                }
            ],
            "stateMutability": "nonpayable",
            "type": "constructor"
        },
        {
            "anonymous": false,
            "inputs": [
                {
                    "indexed": true,
                    "internalType": "address",
                    "name": "previousOwner",
                    "type": "address"
                },
                {
                    "indexed": true,
                    "internalType": "address",
                    "name": "newOwner",
                    "type": "address"
                }
            ],
            "name": "OwnershipTransferred",
            "type": "event"
        },
        {
            "inputs": [],
            "name": "ERC20TokenSourceWallet",
            "outputs": [
                {
                    "internalType": "address",
                    "name": "",
                    "type": "address"
                }
            ],
            "stateMutability": "view",
            "type": "function"
        },
        {
            "inputs": [],
            "name": "buyTokens",
            "outputs": [],
            "stateMutability": "payable",
            "type": "function"
        },
        {
            "inputs": [
                {
                    "internalType": "address",
                    "name": "beneficiary",
                    "type": "address"
                }
            ],
            "name": "checkVested",
            "outputs": [
                {
                    "internalType": "uint256",
                    "name": "",
                    "type": "uint256"
                }
            ],
            "stateMutability": "view",
            "type": "function"
        },
        {
            "inputs": [],
            "name": "owner",
            "outputs": [
                {
                    "internalType": "address",
                    "name": "",
                    "type": "address"
                }
            ],
            "stateMutability": "view",
            "type": "function"
        },
        {
            "inputs": [],
            "name": "releaseEther",
            "outputs": [],
            "stateMutability": "nonpayable",
            "type": "function"
        },
        {
            "inputs": [],
            "name": "releaseTokens",
            "outputs": [],
            "stateMutability": "nonpayable",
            "type": "function"
        },
        {
            "inputs": [],
            "name": "releaseVest1",
            "outputs": [],
            "stateMutability": "nonpayable",
            "type": "function"
        },
        {
            "inputs": [],
            "name": "releaseVest2",
            "outputs": [],
            "stateMutability": "nonpayable",
            "type": "function"
        },
        {
            "inputs": [
                {
                    "internalType": "address",
                    "name": "",
                    "type": "address"
                }
            ],
            "name": "released",
            "outputs": [
                {
                    "internalType": "uint256",
                    "name": "",
                    "type": "uint256"
                }
            ],
            "stateMutability": "view",
            "type": "function"
        },
        {
            "inputs": [],
            "name": "renounceOwnership",
            "outputs": [],
            "stateMutability": "nonpayable",
            "type": "function"
        },
        {
            "inputs": [],
            "name": "saleTokenAddress",
            "outputs": [
                {
                    "internalType": "address",
                    "name": "",
                    "type": "address"
                }
            ],
            "stateMutability": "view",
            "type": "function"
        },
        {
            "inputs": [],
            "name": "tokensPerEth",
            "outputs": [
                {
                    "internalType": "uint256",
                    "name": "",
                    "type": "uint256"
                }
            ],
            "stateMutability": "view",
            "type": "function"
        },
        {
            "inputs": [
                {
                    "internalType": "address",
                    "name": "",
                    "type": "address"
                }
            ],
            "name": "totalBuy",
            "outputs": [
                {
                    "internalType": "uint256",
                    "name": "",
                    "type": "uint256"
                }
            ],
            "stateMutability": "view",
            "type": "function"
        },
        {
            "inputs": [
                {
                    "internalType": "address",
                    "name": "newOwner",
                    "type": "address"
                }
            ],
            "name": "transferOwnership",
            "outputs": [],
            "stateMutability": "nonpayable",
            "type": "function"
        }
    ],
    "bytecode": "608060405234801561001057600080fd5b50604051610bda380380610bda83398101604081905261002f916100f0565b61003833610084565b600180546001600160a01b039485166001600160a01b03199182161790915560028054939094169281168317909355600455600380549092161790556005805461ffff1916905561012c565b600080546001600160a01b038381166001600160a01b0319831681178455604051919092169283917f8be0079c531659141344cd1fd0a4f28419497f9722a3daafe3b4186f6b6457e09190a35050565b80516001600160a01b03811681146100eb57600080fd5b919050565b60008060006060848603121561010557600080fd5b61010e846100d4565b925061011c602085016100d4565b9150604084015190509250925092565b610a9f8061013b6000396000f3fe6080604052600436106100dd5760003560e01c8063a96f86681161007f578063d0febe4c11610059578063d0febe4c14610231578063d690900a14610239578063f2fde38b14610259578063fe33fc041461027957600080fd5b8063a96f8668146101e6578063af82d983146101fb578063cbdd69b51461021b57600080fd5b8063532ed0e2116100bb578063532ed0e21461014e578063715018a6146101865780638da5cb5b1461019b5780639852595c146101b957600080fd5b8063134c1247146100e25780631b4d15ae146100f95780635130d7341461010e575b600080fd5b3480156100ee57600080fd5b506100f761028e565b005b34801561010557600080fd5b506100f76102d0565b34801561011a57600080fd5b5061013b6101293660046108e8565b60066020526000908152604090205481565b6040519081526020015b60405180910390f35b34801561015a57600080fd5b5060015461016e906001600160a01b031681565b6040516001600160a01b039091168152602001610145565b34801561019257600080fd5b506100f7610329565b3480156101a757600080fd5b506000546001600160a01b031661016e565b3480156101c557600080fd5b5061013b6101d43660046108e8565b60076020526000908152604090205481565b3480156101f257600080fd5b506100f761035f565b34801561020757600080fd5b5060025461016e906001600160a01b031681565b34801561022757600080fd5b5061013b60045481565b6100f761042d565b34801561024557600080fd5b5061013b6102543660046108e8565b610473565b34801561026557600080fd5b506100f76102743660046108e8565b61050b565b34801561028557600080fd5b506100f76105a3565b6000546001600160a01b031633146102c15760405162461bcd60e51b81526004016102b890610911565b60405180910390fd5b6005805460ff19166001179055565b6000546001600160a01b031633146102fa5760405162461bcd60e51b81526004016102b890610911565b60405133904780156108fc02916000818181858888f19350505050158015610326573d6000803e3d6000fd5b50565b6000546001600160a01b031633146103535760405162461bcd60e51b81526004016102b890610911565b61035d60006105de565b565b6005546000908190610100900460ff161561037c57506064610393565b60055460ff161561038f5750603c610393565b5060145b336000908152600660205260409020546064906103b190839061095c565b6103bb919061097b565b336000908152600760205260409020549092506103d8908361099d565b336000908152600760205260409020549092506103f69083906109b4565b33600081815260076020526040902091909155600154600354610429926001600160a01b0391821692909116908561062e565b5050565b60006004543461043d919061095c565b3360009081526006602052604090205490915061045b9082906109b4565b3360009081526006602052604090205561032661035f565b6000806000600560019054906101000a900460ff1615610495575060646104ac565b60055460ff16156104a85750603c6104ac565b5060145b6001600160a01b0384166000908152600660205260409020546064906104d390839061095c565b6104dd919061097b565b6001600160a01b038516600090815260076020526040902054909250610503908361099d565b949350505050565b6000546001600160a01b031633146105355760405162461bcd60e51b81526004016102b890610911565b6001600160a01b03811661059a5760405162461bcd60e51b815260206004820152602660248201527f4f776e61626c653a206e6577206f776e657220697320746865207a65726f206160448201526564647265737360d01b60648201526084016102b8565b610326816105de565b6000546001600160a01b031633146105cd5760405162461bcd60e51b81526004016102b890610911565b6005805461ff001916610100179055565b600080546001600160a01b038381166001600160a01b0319831681178455604051919092169283917f8be0079c531659141344cd1fd0a4f28419497f9722a3daafe3b4186f6b6457e09190a35050565b604080516001600160a01b0385811660248301528416604482015260648082018490528251808303909101815260849091019091526020810180516001600160e01b03166323b872dd60e01b17905261068890859061068e565b50505050565b60006106e3826040518060400160405280602081526020017f5361666545524332303a206c6f772d6c6576656c2063616c6c206661696c6564815250856001600160a01b03166107659092919063ffffffff16565b805190915015610760578080602001905181019061070191906109cc565b6107605760405162461bcd60e51b815260206004820152602a60248201527f5361666545524332303a204552433230206f7065726174696f6e20646964206e6044820152691bdd081cdd58d8d9595960b21b60648201526084016102b8565b505050565b6060610774848460008561077e565b90505b9392505050565b6060824710156107df5760405162461bcd60e51b815260206004820152602660248201527f416464726573733a20696e73756666696369656e742062616c616e636520666f6044820152651c8818d85b1b60d21b60648201526084016102b8565b6001600160a01b0385163b6108365760405162461bcd60e51b815260206004820152601d60248201527f416464726573733a2063616c6c20746f206e6f6e2d636f6e747261637400000060448201526064016102b8565b600080866001600160a01b031685876040516108529190610a1a565b60006040518083038185875af1925050503d806000811461088f576040519150601f19603f3d011682016040523d82523d6000602084013e610894565b606091505b50915091506108a48282866108af565b979650505050505050565b606083156108be575081610777565b8251156108ce5782518084602001fd5b8160405162461bcd60e51b81526004016102b89190610a36565b6000602082840312156108fa57600080fd5b81356001600160a01b038116811461077757600080fd5b6020808252818101527f4f776e61626c653a2063616c6c6572206973206e6f7420746865206f776e6572604082015260600190565b634e487b7160e01b600052601160045260246000fd5b600081600019048311821515161561097657610976610946565b500290565b60008261099857634e487b7160e01b600052601260045260246000fd5b500490565b6000828210156109af576109af610946565b500390565b600082198211156109c7576109c7610946565b500190565b6000602082840312156109de57600080fd5b8151801515811461077757600080fd5b60005b83811015610a095781810151838201526020016109f1565b838111156106885750506000910152565b60008251610a2c8184602087016109ee565b9190910192915050565b6020815260008251806020840152610a558160408501602087016109ee565b601f01601f1916919091016040019291505056fea264697066735822122016c333ef4040763cdd1cb234f6805eb793caec37004b01f09eca30d1d65696d864736f6c634300080b0033",
    "sourcePath": "c:/Users/Joao/Documents/cryptomonkeysgame/crypto_game_boilerplate/contracts/presale/VestedPresale.sol",
    "compiler": {
        "name": "solc",
        "version": "0.8.11+commit.d7f03943"
    },
    "functionHashes": {
        "ERC20TokenSourceWallet()": "532ed0e2",
        "buyTokens()": "d0febe4c",
        "checkVested(address)": "d690900a",
        "owner()": "8da5cb5b",
        "releaseEther()": "1b4d15ae",
        "releaseTokens()": "a96f8668",
        "releaseVest1()": "134c1247",
        "releaseVest2()": "fe33fc04",
        "released(address)": "9852595c",
        "renounceOwnership()": "715018a6",
        "saleTokenAddress()": "af82d983",
        "tokensPerEth()": "cbdd69b5",
        "totalBuy(address)": "5130d734",
        "transferOwnership(address)": "f2fde38b"
    },
    "gasEstimates": {
        "creation": {
            "codeDepositCost": "543800",
            "executionCost": "infinite",
            "totalCost": "infinite"
        },
        "external": {
            "ERC20TokenSourceWallet()": "2360",
            "buyTokens()": "infinite",
            "checkVested(address)": "9344",
            "owner()": "2398",
            "releaseEther()": "infinite",
            "releaseTokens()": "infinite",
            "releaseVest1()": "26532",
            "releaseVest2()": "26596",
            "released(address)": "2562",
            "renounceOwnership()": "28159",
            "saleTokenAddress()": "2382",
            "tokensPerEth()": "2351",
            "totalBuy(address)": "2541",
            "transferOwnership(address)": "28340"
        }
    }
}